:100000000C945C000C9479000C9479000C947900A9
:100010000C9479000C9479000C9479000C9479007C
:100020000C9479000C9479000C9479000C9479006C
:100030000C9479000C9479000C9479000C9479005C
:100040000C944D010C9479000C9479000C94790077
:100050000C9479000C9479000C9479000C9479003C
:100060000C9479000C947900000000002400270013
:100070002A0000000000250028002B0004040404CE
:100080000404040402020202020203030303030342
:10009000010204081020408001020408102001021F
:1000A00004081020000000080002010000030407FB
:1000B000000000000000000011241FBECFEFD8E0B8
:1000C000DEBFCDBF11E0A0E0B1E0E8E7F4E002C0A0
:1000D00005900D92AA3AB107D9F721E0AAEAB1E05A
:1000E00001C01D92A33BB207E1F70E9497010C9457
:1000F0003A020C940000E1EBF0E02491EDE9F0E02D
:100100009491E9E8F0E0E491EE2309F43BC0222366
:1001100039F1233091F038F42130A9F0223001F583
:1001200024B52F7D12C0273091F02830A1F0243063
:10013000B9F4209180002F7D03C0209180002F779B
:10014000209380000DC024B52F7724BD09C02091D5
:10015000B0002F7703C02091B0002F7D2093B00016
:10016000F0E0EE0FFF1FEE58FF4FA591B4912FB7AF
:10017000F894EC91811103C090959E2301C09E2BB1
:100180009C932FBF08953FB7F8948091AF01909151
:10019000B001A091B101B091B20126B5A89B05C0F4
:1001A0002F3F19F00196A11DB11D3FBFBA2FA92FF6
:1001B000982F8827820F911DA11DB11DBC01CD0173
:1001C00042E0660F771F881F991F4A95D1F708955F
:1001D0008F929F92AF92BF92CF92DF92EF92FF9257
:1001E0006B017C010E94C3004B015C01C114D1046E
:1001F000E104F104F1F00E94C300DC01CB01881995
:100200009909AA09BB09883E9340A105B10570F37D
:1002100021E0C21AD108E108F10888EE880E83E0D7
:10022000981EA11CB11CC114D104E104F10419F7FA
:10023000DDCFFF90EF90DF90CF90BF90AF909F9079
:100240008F9008950F931F93CF938C01F801C19164
:100250008F01CC23F1F081E00E947B002C2FCC0F8A
:10026000330B2458314029F464E670E080E090E0DC
:1002700004C064EF71E080E090E00E94E80080E05C
:100280000E947B0064E670E080E090E00E94E8005D
:10029000DDCFCF911F910F9108951F920F920FB64E
:1002A0000F9211242F933F938F939F93AF93BF93FC
:1002B0008091AB019091AC01A091AD01B091AE01E4
:1002C0003091AA0123E0230F2D3720F40196A11DC0
:1002D000B11D05C026E8230F0296A11DB11D209374
:1002E000AA018093AB019093AC01A093AD01B093B0
:1002F000AE018091AF019091B001A091B101B09198
:10030000B2010196A11DB11D8093AF019093B00180
:10031000A093B101B093B201BF91AF919F918F9122
:100320003F912F910F900FBE0F901F901895CF9374
:10033000DF9300D0CDB7DEB7789484B5826084BDFA
:1003400084B5816084BD85B5826085BD85B58160D9
:1003500085BD80916E00816080936E001092810057
:100360008091810082608093810080918100816012
:1003700080938100809180008160809380008091D3
:10038000B10084608093B1008091B000816080935F
:10039000B00080917A00846080937A0080917A0026
:1003A000826080937A0080917A00816080937A00E5
:1003B00080917A00806880937A001092C100EDE904
:1003C000F0E02491E9E8F0E08491882399F090E04E
:1003D000880F991FFC01E859FF4FA591B491FC01CA
:1003E000EE58FF4F859194918FB7F894EC91E22BE2
:1003F000EC938FBF06E411E0802F002E000C990BC8
:100400009C01220F331FA90140565F4F7A019C01C6
:10041000220F331FF901EE56FF4F6F012E5A3F4F47
:1004200059013FE9300F39834FEB400F4A8359811F
:100430005A3110F4F50104C02A812A3130F4F60152
:10044000808191810E9422010EC090ED900F9A3020
:1004500010F4F701F5CF003231F46CE271E080E086
:1004600090E00E94E80080E090E0892B01F30E9478
:080470000000D7CFF894FFCF84
:100478004A01500156015C01620168016E01740174
:100488007A0180019201750186017C0184018B014A
:10049800820190016F017D015701910195014D0184
:1004A80083014C019A0176014E01A0016301A50167
:1004B8009F01A4017B01467530002D2D2D2D2D00A7
:1004C8002E2D2D2D2D002E2E2D2D2D002E2E2E2DA8
:1004D8002D002E2E2E2E2D002E2E2E2E2E002D2EC1
:1004E8002E2E2E002D2D2E2E2E002D2D2D2E2E00B3
:1004F8002D2D2D2D2E002D2E2D2E002E2E2D2E00A5
:100508002D2D2E2D002E2D2E2E002E2D2D2E002D94
:0A0518002E2E2D002D2E2D2D00009B
:00000001FF
