:100000000C945D000C9485000C9485000C94850084
:100010000C9485000C9485000C9485000C9485004C
:100020000C9485000C9485000C9485000C9485003C
:100030000C9485000C9485000C9485000C9485002C
:100040000C94C2020C9485000C9490020C946A02E9
:100050000C9485000C9485000C9485000C9485000C
:100060000C9485000C9485000000000024002700FB
:100070002A0000000000250028002B0004040404CE
:100080000404040402020202020203030303030342
:10009000010204081020408001020408102001021F
:1000A00004081020000000080002010000030407FB
:1000B0000000000000000000D50311241FBECFEF98
:1000C000D8E0DEBFCDBF11E0A0E0B1E0EEE1F8E0A6
:1000D00002C005900D92A83BB107D9F722E0A8EB2A
:1000E000B1E001C01D92AE35B207E1F710E0CDE5F9
:1000F000D0E004C02197FE010E940204CC35D10754
:10010000C9F70E940C030C940D040C940000E1EB61
:10011000F0E02491EDE9F0E09491E9E8F0E0E49179
:10012000EE2309F43BC0222339F1233091F038F457
:100130002130A9F0223001F524B52F7D12C02730DF
:1001400091F02830A1F02430B9F4209180002F7D67
:1001500003C0209180002F77209380000DC024B52C
:100160002F7724BD09C02091B0002F7703C02091C4
:10017000B0002F7D2093B000F0E0EE0FFF1FEE588F
:10018000FF4FA591B4912FB7F894EC91811103C062
:1001900090959E2301C09E2B9C932FBF0895CF92D4
:1001A000DF92EF92FF920F931F93CF93DF936C0137
:1001B0007A018B01C0E0D0E0CE15DF0589F0D801CF
:1001C0006D918D01D601ED91FC910190F081E02DB2
:1001D000C6010995892B11F47E0102C02196ECCF4E
:1001E000C701DF91CF911F910F91FF90EF90DF90AA
:1001F000CF900895089580E090E00895FC01538D1C
:10020000448D252F30E0842F90E0821B930B5417F0
:1002100010F0CF96089501970895FC01918D828D7D
:10022000981761F0828DDF01A80FB11D5D968C914A
:10023000928D9F5F9F73928F90E008958FEF9FEF55
:100240000895FC01918D828D981731F0828DE80F11
:10025000F11D858D90E008958FEF9FEF0895FC01CB
:10026000918D228D892F90E0805C9F4F821B910998
:100270008F739927089581EC91E00E942F0121E06E
:10028000892B09F420E0822F0895FC01848DDF0181
:10029000A80FB11DA35ABF4F2C91848D90E00196F9
:1002A0008F739927848FA689B7892C93A089B189E8
:1002B0008C9180648C93938D848D981306C00288F2
:1002C000F389E02D80818F7D80830895EF92FF92E6
:1002D0000F931F93CF93DF93EC0181E0888F9B8D69
:1002E0008C8D981305C0E889F989808185FD24C02B
:1002F000F62E0B8D10E00F5F1F4F0F731127E02EAE
:100300008C8DE8120CC00FB607FCFACFE889F9898A
:10031000808185FFF5CFCE010E944501F1CF8B8D05
:10032000FE01E80FF11DE35AFF4FF0820B8FEA89BF
:10033000FB898081806207C0EE89FF896083E8893C
:10034000F98980818064808381E090E0DF91CF91A2
:100350001F910F91FF90EF900895CF93DF93EC01E1
:10036000888D8823C9F0EA89FB89808185FD05C0D5
:10037000A889B9898C9186FD0FC00FB607FCF5CF0F
:10038000808185FFF2CFA889B9898C9185FFEDCF57
:10039000CE010E944501E7CFDF91CF91089580E023
:1003A00090E0892B29F00E943B0181110C94000000
:1003B00008953FB7F8948091BD019091BE01A0913E
:1003C000BF01B091C00126B5A89B05C02F3F19F011
:1003D0000196A11DB11D3FBFBA2FA92F982F8827C5
:1003E000820F911DA11DB11DBC01CD0142E0660F20
:1003F000771F881F991F4A95D1F708958F929F9272
:10040000AF92BF92CF92DF92EF92FF926B017C018D
:100410000E94D9014B015C01C114D104E104F10433
:10042000F1F00E94D901DC01CB0188199909AA09D0
:10043000BB09883E9340A105B10570F321E0C21AC3
:10044000D108E108F10888EE880E83E0981EA11C0F
:10045000B11CC114D104E104F10419F7DDCFFF9000
:10046000EF90DF90CF90BF90AF909F908F900895C6
:100470000F931F93CF938C01F801C1918F01CC236F
:10048000F1F081E00E9487002C2FCC0F330B2C5809
:10049000314029F468EC70E080E090E004C068E549
:1004A00072E080E090E00E94FE0180E00E94870000
:1004B00068EC70E080E090E00E94FE01DDCF68E52E
:1004C00072E080E090E0CF911F910F910C94FE01BB
:1004D0000E9408041F920F920FB60F9211242F93BF
:1004E0003F934F935F936F937F938F939F93AF93BC
:1004F000BF93EF93FF9381EC91E00E944501FF9140
:10050000EF91BF91AF919F918F917F916F915F918B
:100510004F913F912F910F900FBE0F901F90189504
:100520001F920F920FB60F9211242F938F939F93C8
:10053000EF93FF93E091D101F091D2018081E0919E
:10054000D701F091D80182FD12C090818091DA012B
:100550008F5F8F732091DB01821751F0E091DA01F8
:10056000F0E0EF53FE4F958F8093DA0101C0808158
:10057000FF91EF919F918F912F910F900FBE0F9050
:100580001F9018951F920F920FB60F9211242F9360
:100590003F938F939F93AF93BF938091B9019091B5
:1005A000BA01A091BB01B091BC013091B80123E028
:1005B000230F2D3720F40196A11DB11D05C026E89B
:1005C000230F0296A11DB11D2093B8018093B9019C
:1005D0009093BA01A093BB01B093BC018091BD017F
:1005E0009091BE01A091BF01B091C0010196A11DE3
:1005F000B11D8093BD019093BE01A093BF01B09344
:10060000C001BF91AF919F918F913F912F910F901A
:100610000FBE0F901F901895789484B5826084BDAA
:1006200084B5816084BD85B5826085BD85B58160F6
:1006300085BD80916E00816080936E001092810074
:10064000809181008260809381008091810081602F
:1006500080938100809180008160809380008091F0
:10066000B10084608093B1008091B000816080937C
:10067000B00080917A00846080937A0080917A0043
:10068000826080937A0080917A00816080937A0002
:1006900080917A00806880937A001092C100EDE921
:1006A000F0E02491E9E8F0E08491882399F090E06B
:1006B000880F991FFC01E859FF4FA591B491FC01E7
:1006C000EE58FF4F859194918FB7F894EC91E22BFF
:1006D000EC938FBFE091D101F091D20182E0808351
:1006E000E091CD01F091CE011082E091CF01F09127
:1006F000D0018FEC80831092D901E091D501F09167
:10070000D60186E08083E091D301F091D40180810D
:1007100080618083E091D301F091D4018081886071
:100720008083E091D301F091D4018081806880833F
:10073000E091D301F091D40180818F7D808381ECA1
:1007400091E00E942F011816190664F581EC91E0E2
:100750000E940D01E82F8FE98E0F8A3128F4EE0FE9
:10076000FF0BEC59FF4F08C08FEB8E0F8A3148F416
:10077000EE0FFF0BEC55FF4F808191810E943802F4
:1007800011C080ED8E0F8A3028F4EE0FFF0BEE546F
:10079000FF4FF2CFE03231F460E273E080E090E0AE
:1007A0000E94FE010E94CF01CACFE1ECF1E013826A
:1007B000128288EE93E0A0E0B0E084839583A68364
:1007C000B78384E091E09183808385EC90E0958706
:1007D000848784EC90E09787868780EC90E0918B0B
:1007E000808B81EC90E0938B828B82EC90E0958BF8
:1007F000848B86EC90E0978B868B118E128E138EF5
:10080000148E0895EE0FFF1F0590F491E02D0994CA
:0E08100081E090E0F8940C940D04F894FFCF72
:10081E00000000006601CF00FE00AD012F010D01AA
:10082E00210158015E0164016A01700176017C01AB
:10083E00820188018E01A0017D01940184018C0149
:10084E0099018A019E01770185015F019F01A30134
:10085E0091018B019001A8017E019201AE016B0105
:10086E00B301AD01B20183012E2D2D2D2D002E2EA3
:10087E002D2D2D002E2E2E2D2D002E2E2E2E2D001A
:10088E002E2E2E2E2E002D2E2E2E2E002D2D2E2ED9
:10089E002E002D2D2D2E2E002D2D2D2D2E002D2DFD
:1008AE002D2D2D002D2E2D2E002E2E2D2E002D2DEC
:1008BE002E2D002E2D2E2E002E2D2D2E002D2E2ED9
:0808CE002D002D2E2D2D000040
:00000001FF
