:100000000C9467270C9484270C9484270C948427E1
:100010000C9484270C9484270C9484270C948427B4
:100020000C9484270C9484270C9484270C943028F7
:100030000C9484270C9484270C9484270C94842794
:100040000C94E6270C9484270C9484270C94842722
:100050000C9484270C9484270C9484270C94842774
:100060000C9484270C9484277F7F7F7F7F7F7F7F02
:100070007F7F7F7F7F7F7F7F7F7F7F7F7F7F7F7F90
:100080007F7F808080808080808080808080808072
:10009000808080808080808080808081818181815B
:1000A0008181818181818181818181818181818140
:1000B0008181818182828282828282828282828224
:1000C000828282828282828282828282828383830D
:1000D00083838383838383838383838383838383F0
:1000E00083838383838384848484848484848484D6
:1000F00084848484848484848484848484848485BF
:10010000858585858585858585858585858585859F
:100110008585858585858585868686868686868687
:10012000868686868686868686868686868686866F
:100130008687878787878787878787878787878750
:100140008787878787878787878788888888888839
:10015000888888888888888888888888888888881F
:100160008888888989898989898989898989898902
:10017000898989898989898989898989898A8A8AEC
:100180008A8A8A8A8A8A8A8A8A8A8A8A8A8A8A8ACF
:100190008A8A8A8A8A8A8B8B8B8B8B8B8B8B8B8BB5
:1001A0008B8B8B8B8B8B8B8B8B8B8B8B8B8B8B8C9E
:1001B0008C8C8C8C8C8C8C8C8C8C8C8C8C8C8C8C7F
:1001C0008C8C8C8C8C8C8C8C8D8D8D8D8D8D8D8D67
:1001D0008D8D8D8D8D8D8D8D8D8D8D8D8D8D8D8D4F
:1001E0008D8E8E8E8E8E8E8E8E8E8E8E8E8E8E8E30
:1001F0008E8E8E8E8E8E8E8E8E8E8E8F8F8F8F8F1A
:100200008F8F8F8F8F8F8F8F8F8F8F8F8F8F8F8FFE
:100210008F8F8F8F909090909090909090909090E2
:1002200090909090909090909090909090919191CB
:1002300091919191919191919191919191919191AE
:100240009191919191919192929292929292929295
:10025000929292929292929292929292929292927E
:10026000939393939393939393939393939393935E
:100270009393939393939393939494949494949447
:10028000949494949494949494949494949494942E
:100290009494949595959595959595959595959511
:1002A00095959595959595959595959596969696FA
:1002B00096969696969696969696969696969696DE
:1002C00096969696969697979797979797979797C4
:1002D00097979797979797979797979797979798AD
:1002E000989898989898989898989898989898988E
:1002F0009898989898989898989999999999999977
:10030000999999999999999999999999999999995D
:1003100099999A9A9A9A9A9A9A9A9A9A9A9A9A9A3F
:100320009A9A9A9A9A9A9A9A9A9A9A9A9B9B9B9B29
:100330009B9B9B9B9B9B9B9B9B9B9B9B9B9B9B9B0D
:100340009B9B9B9B9B9B9C9C9C9C9C9C9C9C9C9CF3
:100350009C9C9C9C9C9C9C9C9C9C9C9C9C9C9C9CDD
:100360009D9D9D9D9D9D9D9D9D9D9D9D9D9D9D9DBD
:100370009D9D9D9D9D9D9D9D9D9E9E9E9E9E9E9EA6
:100380009E9E9E9E9E9E9E9E9E9E9E9E9E9E9E9E8D
:100390009E9E9E9F9F9F9F9F9F9F9F9F9F9F9F9F70
:1003A0009F9F9F9F9F9F9F9F9F9F9F9F9FA0A0A05A
:1003B000A0A0A0A0A0A0A0A0A0A0A0A0A0A0A0A03D
:1003C000A0A0A0A0A0A0A0A1A1A1A1A1A1A1A1A124
:1003D000A1A1A1A1A1A1A1A1A1A1A1A1A1A1A1A10D
:1003E000A1A2A2A2A2A2A2A2A2A2A2A2A2A2A2A2EE
:1003F000A2A2A2A2A2A2A2A2A2A2A2A3A3A3A3A3D8
:10040000A3A3A3A3A3A3A3A3A3A3A3A3A3A3A3A3BC
:10041000A3A3A3A3A3A3A4A4A4A4A4A4A4A4A4A4A2
:10042000A4A4A4A4A4A4A4A4A4A4A4A4A4A4A4A48C
:10043000A5A5A5A5A5A5A5A5A5A5A5A5A5A5A5A56C
:10044000A5A5A5A5A5A5A5A5A5A5A6A6A6A6A6A656
:10045000A6A6A6A6A6A6A6A6A6A6A6A6A6A6A6A63C
:10046000A6A6A6A6A7A7A7A7A7A7A7A7A7A7A7A720
:10047000A7A7A7A7A7A7A7A7A7A7A7A7A7A7A7A80B
:10048000A8A8A8A8A8A8A8A8A8A8A8A8A8A8A8A8EC
:10049000A8A8A8A8A8A8A8A8A8A9A9A9A9A9A9A9D5
:1004A000A9A9A9A9A9A9A9A9A9A9A9A9A9A9A9A9BC
:1004B000A9A9A9A9AAAAAAAAAAAAAAAAAAAAAAAAA0
:1004C000AAAAAAAAAAAAAAAAAAAAAAAAAAAAAAAB8B
:1004D000ABABABABABABABABABABABABABABABAB6C
:1004E000ABABABABABABABABABACACACACACACAC55
:1004F000ACACACACACACACACACACACACACACACAC3C
:10050000ACACACACADADADADADADADADADADADAD1F
:10051000ADADADADADADADADADADADADADADADAE0A
:10052000AEAEAEAEAEAEAEAEAEAEAEAEAEAEAEAEEB
:10053000AEAEAEAEAEAEAEAEAEAEAFAFAFAFAFAFD5
:10054000AFAFAFAFAFAFAFAFAFAFAFAFAFAFAFAFBB
:10055000AFAFAFAFAFB0B0B0B0B0B0B0B0B0B0B0A0
:10056000B0B0B0B0B0B0B0B0B0B0B0B0B0B0B0B08B
:10057000B0B1B1B1B1B1B1B1B1B1B1B1B1B1B1B16C
:10058000B1B1B1B1B1B1B1B1B1B1B1B1B2B2B2B257
:10059000B2B2B2B2B2B2B2B2B2B2B2B2B2B2B2B23B
:1005A000B2B2B2B2B2B2B2B3B3B3B3B3B3B3B3B322
:1005B000B3B3B3B3B3B3B3B3B3B3B3B3B3B3B3B30B
:1005C000B3B3B3B4B4B4B4B4B4B4B4B4B4B4B4B4EE
:1005D000B4B4B4B4B4B4B4B4B4B4B4B4B4B4B5B5D9
:1005E000B5B5B5B5B5B5B5B5B5B5B5B5B5B5B5B5BB
:1005F000B5B5B5B5B5B5B5B5B5B5B6B6B6B6B6B6A5
:10060000B6B6B6B6B6B6B6B6B6B6B6B6B6B6B6B68A
:10061000B6B6B6B6B6B6B7B7B7B7B7B7B7B7B7B770
:10062000B7B7B7B7B7B7B7B7B7B7B7B7B7B7B7B75A
:10063000B7B7B8B8B8B8B8B8B8B8B8B8B8B8B8B83C
:10064000B8B8B8B8B8B8B8B8B8B8B8B8B8B8B9B928
:10065000B9B9B9B9B9B9B9B9B9B9B9B9B9B9B9B90A
:10066000B9B9B9B9B9B9B9B9B9B9BABABABABABAF4
:10067000BABABABABABABABABABABABABABABABADA
:10068000BABABABABABABABBBBBBBBBBBBBBBBBBC1
:10069000BBBBBBBBBBBBBBBBBBBBBBBBBBBBBBBBAA
:1006A000BBBBBBBCBCBCBCBCBCBCBCBCBCBCBCBC8D
:1006B000BCBCBCBCBCBCBCBCBCBCBCBCBCBCBCBC7A
:1006C000BDBDBDBDBDBDBDBDBDBDBDBDBDBDBDBD5A
:1006D000BDBDBDBDBDBDBDBDBDBDBDBDBDBEBEBE47
:1006E000BEBEBEBEBEBEBEBEBEBEBEBEBEBEBEBE2A
:1006F000BEBEBEBEBEBEBEBEBEBEBFBFBFBFBFBF14
:10070000BFBFBFBFBFBFBFBFBFBFBFBFBFBFBFBFF9
:10071000BFBFBFBFBFBFBFC0C0C0C0C0C0C0C0C0E0
:10072000C0C0C0C0C0C0C0C0C0C0C0C0C0C0C0C0C9
:10073000C0C0C0C0C1C1C1C1C1C1C1C1C1C1C1C1AD
:10074000C1C1C1C1C1C1C1C1C1C1C1C1C1C1C1C199
:10075000C1C2C2C2C2C2C2C2C2C2C2C2C2C2C2C27A
:10076000C2C2C2C2C2C2C2C2C2C2C2C2C2C2C2C368
:10077000C3C3C3C3C3C3C3C3C3C3C3C3C3C3C3C349
:10078000C3C3C3C3C3C3C3C3C3C3C3C3C3C4C4C436
:10079000C4C4C4C4C4C4C4C4C4C4C4C4C4C4C4C419
:1007A000C4C4C4C4C4C4C4C4C4C4C4C5C5C5C5C504
:1007B000C5C5C5C5C5C5C5C5C5C5C5C5C5C5C5C5E9
:1007C000C5C5C5C5C5C5C5C5C5C6C6C6C6C6C6C6D2
:1007D000C6C6C6C6C6C6C6C6C6C6C6C6C6C6C6C6B9
:1007E000C6C6C6C6C6C6C6C7C7C7C7C7C7C7C7C7A0
:1007F000C7C7C7C7C7C7C7C7C7C7C7C7C7C7C7C789
:10080000C7C7C7C7C7C7C8C8C8C8C8C8C8C8C8C86E
:10081000C8C8C8C8C8C8C8C8C8C8C8C8C8C8C8C858
:10082000C8C8C8C8C9C9C9C9C9C9C9C9C9C9C9C93C
:10083000C9C9C9C9C9C9C9C9C9C9C9C9C9C9C9C928
:10084000C9C9C9CACACACACACACACACACACACACA0B
:10085000CACACACACACACACACACACACACACACACAF8
:10086000CACACACBCBCBCBCBCBCBCBCBCBCBCBCBDB
:10087000CBCBCBCBCBCBCBCBCBCBCBCBCBCBCBCBC8
:10088000CBCBCCCCCCCCCCCCCCCCCCCCCCCCCCCCAA
:10089000CCCCCCCCCCCCCCCCCCCCCCCCCCCCCCCC98
:1008A000CCCCCDCDCDCDCDCDCDCDCDCDCDCDCDCD7A
:1008B000CDCDCDCDCDCDCDCDCDCDCDCDCDCDCDCD68
:1008C000CDCECECECECECECECECECECECECECECE49
:1008D000CECECECECECECECECECECECECECECECE38
:1008E000CECECFCFCFCFCFCFCFCFCFCFCFCFCFCF1A
:1008F000CFCFCFCFCFCFCFCFCFCFCFCFCFCFCFCF08
:10090000CFCFD0D0D0D0D0D0D0D0D0D0D0D0D0D0E9
:10091000D0D0D0D0D0D0D0D0D0D0D0D0D0D0D0D0D7
:10092000D0D0D0D1D1D1D1D1D1D1D1D1D1D1D1D1BA
:10093000D1D1D1D1D1D1D1D1D1D1D1D1D1D1D1D1A7
:10094000D1D1D1D1D2D2D2D2D2D2D2D2D2D2D2D28B
:10095000D2D2D2D2D2D2D2D2D2D2D2D2D2D2D2D277
:10096000D2D2D2D2D2D3D3D3D3D3D3D3D3D3D3D35C
:10097000D3D3D3D3D3D3D3D3D3D3D3D3D3D3D3D347
:10098000D3D3D3D3D3D3D3D4D4D4D4D4D4D4D4D42E
:10099000D4D4D4D4D4D4D4D4D4D4D4D4D4D4D4D417
:1009A000D4D4D4D4D4D4D4D4D5D5D5D5D5D5D5D5FF
:1009B000D5D5D5D5D5D5D5D5D5D5D5D5D5D5D5D5E7
:1009C000D5D5D5D5D5D5D5D5D5D5D5D6D6D6D6D6D2
:1009D000D6D6D6D6D6D6D6D6D6D6D6D6D6D6D6D6B7
:1009E000D6D6D6D6D6D6D6D6D6D6D6D6D6D7D7D7A4
:1009F000D7D7D7D7D7D7D7D7D7D7D7D7D7D7D7D787
:100A0000D7D7D7D7D7D7D7D7D7D7D7D7D7D7D7D776
:100A1000D8D8D8D8D8D8D8D8D8D8D8D8D8D8D8D856
:100A2000D8D8D8D8D8D8D8D8D8D8D8D8D8D8D8D846
:100A3000D8D8D8D8D9D9D9D9D9D9D9D9D9D9D9D92A
:100A4000D9D9D9D9D9D9D9D9D9D9D9D9D9D9D9D916
:100A5000D9D9D9D9D9D9D9DADADADADADADADADAFD
:100A6000DADADADADADADADADADADADADADADADAE6
:100A7000DADADADADADADADADADADADBDBDBDBDBD1
:100A8000DBDBDBDBDBDBDBDBDBDBDBDBDBDBDBDBB6
:100A9000DBDBDBDBDBDBDBDBDBDBDBDBDBDBDBDBA6
:100AA000DCDCDCDCDCDCDCDCDCDCDCDCDCDCDCDC86
:100AB000DCDCDCDCDCDCDCDCDCDCDCDCDCDCDCDC76
:100AC000DCDCDCDCDCDDDDDDDDDDDDDDDDDDDDDD5B
:100AD000DDDDDDDDDDDDDDDDDDDDDDDDDDDDDDDD46
:100AE000DDDDDDDDDDDDDDDDDDDDDDDEDEDEDEDE31
:100AF000DEDEDEDEDEDEDEDEDEDEDEDEDEDEDEDE16
:100B0000DEDEDEDEDEDEDEDEDEDEDEDEDEDEDEDE05
:100B1000DEDFDFDFDFDFDFDFDFDFDFDFDFDFDFDFE6
:100B2000DFDFDFDFDFDFDFDFDFDFDFDFDFDFDFDFD5
:100B3000DFDFDFDFDFDFDFE0E0E0E0E0E0E0E0E0BC
:100B4000E0E0E0E0E0E0E0E0E0E0E0E0E0E0E0E0A5
:100B5000E0E0E0E0E0E0E0E0E0E0E0E0E0E0E1E193
:100B6000E1E1E1E1E1E1E1E1E1E1E1E1E1E1E1E175
:100B7000E1E1E1E1E1E1E1E1E1E1E1E1E1E1E1E165
:100B8000E1E1E1E1E1E1E2E2E2E2E2E2E2E2E2E24B
:100B9000E2E2E2E2E2E2E2E2E2E2E2E2E2E2E2E235
:100BA000E2E2E2E2E2E2E2E2E2E2E2E2E2E2E3E323
:100BB000E3E3E3E3E3E3E3E3E3E3E3E3E3E3E3E305
:100BC000E3E3E3E3E3E3E3E3E3E3E3E3E3E3E3E3F5
:100BD000E3E3E3E3E3E3E3E4E4E4E4E4E4E4E4E4DC
:100BE000E4E4E4E4E4E4E4E4E4E4E4E4E4E4E4E4C5
:100BF000E4E4E4E4E4E4E4E4E4E4E4E4E4E4E4E4B5
:100C0000E4E5E5E5E5E5E5E5E5E5E5E5E5E5E5E595
:100C1000E5E5E5E5E5E5E5E5E5E5E5E5E5E5E5E584
:100C2000E5E5E5E5E5E5E5E5E5E5E5E6E6E6E6E66F
:100C3000E6E6E6E6E6E6E6E6E6E6E6E6E6E6E6E654
:100C4000E6E6E6E6E6E6E6E6E6E6E6E6E6E6E6E644
:100C5000E6E6E6E6E6E6E6E7E7E7E7E7E7E7E7E72B
:100C6000E7E7E7E7E7E7E7E7E7E7E7E7E7E7E7E714
:100C7000E7E7E7E7E7E7E7E7E7E7E7E7E7E7E7E704
:100C8000E7E7E7E8E8E8E8E8E8E8E8E8E8E8E8E8E7
:100C9000E8E8E8E8E8E8E8E8E8E8E8E8E8E8E8E8D4
:100CA000E8E8E8E8E8E8E8E8E8E8E8E8E8E8E8E8C4
:100CB000E9E9E9E9E9E9E9E9E9E9E9E9E9E9E9E9A4
:100CC000E9E9E9E9E9E9E9E9E9E9E9E9E9E9E9E994
:100CD000E9E9E9E9E9E9E9E9E9E9E9E9E9E9EAEA82
:100CE000EAEAEAEAEAEAEAEAEAEAEAEAEAEAEAEA64
:100CF000EAEAEAEAEAEAEAEAEAEAEAEAEAEAEAEA54
:100D0000EAEAEAEAEAEAEAEAEAEAEAEAEAEBEBEB40
:100D1000EBEBEBEBEBEBEBEBEBEBEBEBEBEBEBEB23
:100D2000EBEBEBEBEBEBEBEBEBEBEBEBEBEBEBEB13
:100D3000EBEBEBEBEBEBEBEBEBEBEBEBEBECECEC00
:100D4000ECECECECECECECECECECECECECECECECE3
:100D5000ECECECECECECECECECECECECECECECECD3
:100D6000ECECECECECECECECECECECECECECECEDC2
:100D7000EDEDEDEDEDEDEDEDEDEDEDEDEDEDEDEDA3
:100D8000EDEDEDEDEDEDEDEDEDEDEDEDEDEDEDED93
:100D9000EDEDEDEDEDEDEDEDEDEDEDEDEDEDEDED83
:100DA000EDEEEEEEEEEEEEEEEEEEEEEEEEEEEEEE64
:100DB000EEEEEEEEEEEEEEEEEEEEEEEEEEEEEEEE53
:100DC000EEEEEEEEEEEEEEEEEEEEEEEEEEEEEEEE43
:100DD000EEEEEEEEEEEEEFEFEFEFEFEFEFEFEFEF29
:100DE000EFEFEFEFEFEFEFEFEFEFEFEFEFEFEFEF13
:100DF000EFEFEFEFEFEFEFEFEFEFEFEFEFEFEFEF03
:100E0000EFEFEFEFEFEFEFEFEFEFEFEFF0F0F0F0EE
:100E1000F0F0F0F0F0F0F0F0F0F0F0F0F0F0F0F0D2
:100E2000F0F0F0F0F0F0F0F0F0F0F0F0F0F0F0F0C2
:100E3000F0F0F0F0F0F0F0F0F0F0F0F0F0F0F0F0B2
:100E4000F0F0F0F0F1F1F1F1F1F1F1F1F1F1F1F196
:100E5000F1F1F1F1F1F1F1F1F1F1F1F1F1F1F1F182
:100E6000F1F1F1F1F1F1F1F1F1F1F1F1F1F1F1F172
:100E7000F1F1F1F1F1F1F1F1F1F1F1F1F1F1F2F260
:100E8000F2F2F2F2F2F2F2F2F2F2F2F2F2F2F2F242
:100E9000F2F2F2F2F2F2F2F2F2F2F2F2F2F2F2F232
:100EA000F2F2F2F2F2F2F2F2F2F2F2F2F2F2F2F222
:100EB000F2F2F2F2F2F2F2F2F2F2F3F3F3F3F3F30C
:100EC000F3F3F3F3F3F3F3F3F3F3F3F3F3F3F3F3F2
:100ED000F3F3F3F3F3F3F3F3F3F3F3F3F3F3F3F3E2
:100EE000F3F3F3F3F3F3F3F3F3F3F3F3F3F3F3F3D2
:100EF000F3F3F3F3F3F3F3F3F3F4F4F4F4F4F4F4BB
:100F0000F4F4F4F4F4F4F4F4F4F4F4F4F4F4F4F4A1
:100F1000F4F4F4F4F4F4F4F4F4F4F4F4F4F4F4F491
:100F2000F4F4F4F4F4F4F4F4F4F4F4F4F4F4F4F481
:100F3000F4F4F4F4F4F4F4F4F4F4F4F5F5F5F5F56C
:100F4000F5F5F5F5F5F5F5F5F5F5F5F5F5F5F5F551
:100F5000F5F5F5F5F5F5F5F5F5F5F5F5F5F5F5F541
:100F6000F5F5F5F5F5F5F5F5F5F5F5F5F5F5F5F531
:100F7000F5F5F5F5F5F5F5F5F5F5F5F5F5F5F5F521
:100F8000F5F6F6F6F6F6F6F6F6F6F6F6F6F6F6F602
:100F9000F6F6F6F6F6F6F6F6F6F6F6F6F6F6F6F6F1
:100FA000F6F6F6F6F6F6F6F6F6F6F6F6F6F6F6F6E1
:100FB000F6F6F6F6F6F6F6F6F6F6F6F6F6F6F6F6D1
:100FC000F6F6F6F6F6F6F6F6F6F6F6F7F7F7F7F7BC
:100FD000F7F7F7F7F7F7F7F7F7F7F7F7F7F7F7F7A1
:100FE000F7F7F7F7F7F7F7F7F7F7F7F7F7F7F7F791
:100FF000F7F7F7F7F7F7F7F7F7F7F7F7F7F7F7F781
:10100000F7F7F7F7F7F7F7F7F7F7F7F7F7F7F7F770
:10101000F7F7F7F7F7F7F7F7F7F7F8F8F8F8F8F85A
:10102000F8F8F8F8F8F8F8F8F8F8F8F8F8F8F8F840
:10103000F8F8F8F8F8F8F8F8F8F8F8F8F8F8F8F830
:10104000F8F8F8F8F8F8F8F8F8F8F8F8F8F8F8F820
:10105000F8F8F8F8F8F8F8F8F8F8F8F8F8F8F8F810
:10106000F8F8F8F8F8F8F8F8F8F8F8F8F8F8F8F800
:10107000F9F9F9F9F9F9F9F9F9F9F9F9F9F9F9F9E0
:10108000F9F9F9F9F9F9F9F9F9F9F9F9F9F9F9F9D0
:10109000F9F9F9F9F9F9F9F9F9F9F9F9F9F9F9F9C0
:1010A000F9F9F9F9F9F9F9F9F9F9F9F9F9F9F9F9B0
:1010B000F9F9F9F9F9F9F9F9F9F9F9F9F9F9F9F9A0
:1010C000F9F9F9F9F9F9F9F9F9F9F9F9F9F9F9FA8F
:1010D000FAFAFAFAFAFAFAFAFAFAFAFAFAFAFAFA70
:1010E000FAFAFAFAFAFAFAFAFAFAFAFAFAFAFAFA60
:1010F000FAFAFAFAFAFAFAFAFAFAFAFAFAFAFAFA50
:10110000FAFAFAFAFAFAFAFAFAFAFAFAFAFAFAFA3F
:10111000FAFAFAFAFAFAFAFAFAFAFAFAFAFAFAFA2F
:10112000FAFAFAFAFAFAFAFAFAFAFAFAFAFAFAFA1F
:10113000FAFAFAFAFAFAFAFAFAFAFAFBFBFBFBFB0A
:10114000FBFBFBFBFBFBFBFBFBFBFBFBFBFBFBFBEF
:10115000FBFBFBFBFBFBFBFBFBFBFBFBFBFBFBFBDF
:10116000FBFBFBFBFBFBFBFBFBFBFBFBFBFBFBFBCF
:10117000FBFBFBFBFBFBFBFBFBFBFBFBFBFBFBFBBF
:10118000FBFBFBFBFBFBFBFBFBFBFBFBFBFBFBFBAF
:10119000FBFBFBFBFBFBFBFBFBFBFBFBFBFBFBFB9F
:1011A000FBFBFBFBFBFBFBFBFBFBFBFBFBFBFBFB8F
:1011B000FBFBFBFBFBFBFBFBFBFBFBFCFCFCFCFC7A
:1011C000FCFCFCFCFCFCFCFCFCFCFCFCFCFCFCFC5F
:1011D000FCFCFCFCFCFCFCFCFCFCFCFCFCFCFCFC4F
:1011E000FCFCFCFCFCFCFCFCFCFCFCFCFCFCFCFC3F
:1011F000FCFCFCFCFCFCFCFCFCFCFCFCFCFCFCFC2F
:10120000FCFCFCFCFCFCFCFCFCFCFCFCFCFCFCFC1E
:10121000FCFCFCFCFCFCFCFCFCFCFCFCFCFCFCFC0E
:10122000FCFCFCFCFCFCFCFCFCFCFCFCFCFCFCFCFE
:10123000FCFCFCFCFCFCFCFCFCFCFCFCFCFCFCFCEE
:10124000FCFCFCFCFCFCFCFCFCFCFCFCFCFCFCFCDE
:10125000FCFCFCFCFCFCFCFCFCFCFCFCFCFCFCFCCE
:10126000FCFDFDFDFDFDFDFDFDFDFDFDFDFDFDFDAF
:10127000FDFDFDFDFDFDFDFDFDFDFDFDFDFDFDFD9E
:10128000FDFDFDFDFDFDFDFDFDFDFDFDFDFDFDFD8E
:10129000FDFDFDFDFDFDFDFDFDFDFDFDFDFDFDFD7E
:1012A000FDFDFDFDFDFDFDFDFDFDFDFDFDFDFDFD6E
:1012B000FDFDFDFDFDFDFDFDFDFDFDFDFDFDFDFD5E
:1012C000FDFDFDFDFDFDFDFDFDFDFDFDFDFDFDFD4E
:1012D000FDFDFDFDFDFDFDFDFDFDFDFDFDFDFDFD3E
:1012E000FDFDFDFDFDFDFDFDFDFDFDFDFDFDFDFD2E
:1012F000FDFDFDFDFDFDFDFDFDFDFDFDFDFDFDFD1E
:10130000FDFDFDFDFDFDFDFDFDFDFDFDFDFDFDFD0D
:10131000FDFDFDFDFDFDFDFDFDFDFDFDFDFDFDFDFD
:10132000FDFDFDFDFDFDFDFDFDFDFDFDFDFDFDFDED
:10133000FDFDFDFDFDFDFDFDFDFDFDFDFDFDFDFDDD
:10134000FDFDFDFDFDFDFDFDFDFDFDFDFDFDFDFDCD
:10135000FDFDFDFDFDFDFDFDFDFDFDFDFDFDFDFDBD
:10136000FDFDFDFDFDFDFDFDFDFDFDFDFDFDFDFDAD
:10137000FDFDFDFDFDFDFDFDFDFDFDFDFDFDFDFD9D
:10138000FDFDFDFDFDFDFDFDFDFDFDFDFDFDFDFD8D
:10139000FDFDFDFDFDFDFDFDFDFDFDFDFDFDFDFD7D
:1013A000FDFDFDFDFDFDFDFDFDFDFDFDFDFDFDFD6D
:1013B000FDFDFDFDFDFDFDFDFDFDFDFDFDFDFDFD5D
:1013C000FDFDFDFDFDFDFDFDFDFDFDFDFDFDFDFD4D
:1013D000FDFDFDFDFDFDFDFDFDFDFDFDFDFDFDFD3D
:1013E000FDFDFDFDFDFDFDFDFDFDFDFDFDFDFDFD2D
:1013F000FEFDFDFDFDFDFDFDFDFDFDFDFDFDFDFD1C
:10140000FDFDFDFDFDFDFDFDFDFDFDFDFDFDFDFD0C
:10141000FDFDFDFDFDFDFDFDFDFDFDFDFDFDFDFDFC
:10142000FDFDFDFDFDFDFDFDFDFDFDFDFDFDFDFDEC
:10143000FDFDFDFDFDFDFDFDFDFDFDFDFDFDFDFDDC
:10162000FCFCFCFCFCFCFBFBFBFBFBFBFBFBFBFB04
:10163000FBFBFBFBFBFBFBFBFBFBFBFBFBFBFBFBFA
:10164000FBFBFBFBFBFBFBFBFBFBFBFBFBFBFBFBEA
:10165000FBFBFBFBFBFBFBFBFBFBFBFBFBFBFBFBDA
:10166000FBFBFBFBFBFBFBFBFBFBFBFBFBFBFBFBCA
:10167000FBFBFBFBFBFBFBFBFBFBFBFBFBFBFBFBBA
:10168000FBFBFBFBFBFBFBFBFBFBFBFBFBFBFBFBAA
:10169000FBFBFBFBFBFBFBFBFBFBFBFBFBFBFBFB9A
:1016A000FBFBFBFBFBFBFAFAFAFAFAFAFAFAFAFA94
:1016B000FAFAFAFAFAFAFAFAFAFAFAFAFAFAFAFA8A
:1016C000FAFAFAFAFAFAFAFAFAFAFAFAFAFAFAFA7A
:1016D000FAFAFAFAFAFAFAFAFAFAFAFAFAFAFAFA6A
:1016E000FAFAFAFAFAFAFAFAFAFAFAFAFAFAFAFA5A
:1016F000FAFAFAFAFAFAFAFAFAFAFAFAFAFAFAFA4A
:10170000FAFAFAFAFAFAFAFAFAFAFAFAFAFAFAFA39
:10171000FAFAF9F9F9F9F9F9F9F9F9F9F9F9F9F937
:10172000F9F9F9F9F9F9F9F9F9F9F9F9F9F9F9F929
:10173000F9F9F9F9F9F9F9F9F9F9F9F9F9F9F9F919
:10174000F9F9F9F9F9F9F9F9F9F9F9F9F9F9F9F909
:10175000F9F9F9F9F9F9F9F9F9F9F9F9F9F9F9F9F9
:10176000F9F9F9F9F9F9F9F9F9F9F9F9F9F9F9F9E9
:10177000F9F8F8F8F8F8F8F8F8F8F8F8F8F8F8F8E8
:10178000F8F8F8F8F8F8F8F8F8F8F8F8F8F8F8F8D9
:10179000F8F8F8F8F8F8F8F8F8F8F8F8F8F8F8F8C9
:1017A000F8F8F8F8F8F8F8F8F8F8F8F8F8F8F8F8B9
:1017B000F8F8F8F8F8F8F8F8F8F8F8F8F8F8F8F8A9
:1017C000F8F8F8F8F8F8F8F7F7F7F7F7F7F7F7F7A2
:1017D000F7F7F7F7F7F7F7F7F7F7F7F7F7F7F7F799
:1017E000F7F7F7F7F7F7F7F7F7F7F7F7F7F7F7F789
:1017F000F7F7F7F7F7F7F7F7F7F7F7F7F7F7F7F779
:10180000F7F7F7F7F7F7F7F7F7F7F7F7F7F7F7F768
:10181000F7F7F7F7F7F7F6F6F6F6F6F6F6F6F6F662
:10182000F6F6F6F6F6F6F6F6F6F6F6F6F6F6F6F658
:10183000F6F6F6F6F6F6F6F6F6F6F6F6F6F6F6F648
:10184000F6F6F6F6F6F6F6F6F6F6F6F6F6F6F6F638
:10185000F6F6F6F6F6F6F6F6F6F6F6F6F6F6F6F628
:10186000F5F5F5F5F5F5F5F5F5F5F5F5F5F5F5F528
:10187000F5F5F5F5F5F5F5F5F5F5F5F5F5F5F5F518
:10188000F5F5F5F5F5F5F5F5F5F5F5F5F5F5F5F508
:10189000F5F5F5F5F5F5F5F5F5F5F5F5F5F5F5F5F8
:1018A000F5F5F5F5F5F5F4F4F4F4F4F4F4F4F4F4F2
:1018B000F4F4F4F4F4F4F4F4F4F4F4F4F4F4F4F4E8
:1018C000F4F4F4F4F4F4F4F4F4F4F4F4F4F4F4F4D8
:1018D000F4F4F4F4F4F4F4F4F4F4F4F4F4F4F4F4C8
:1018E000F4F4F4F4F4F4F4F4F3F3F3F3F3F3F3F3C0
:1018F000F3F3F3F3F3F3F3F3F3F3F3F3F3F3F3F3B8
:10190000F3F3F3F3F3F3F3F3F3F3F3F3F3F3F3F3A7
:10191000F3F3F3F3F3F3F3F3F3F3F3F3F3F3F3F397
:10192000F3F3F3F3F3F3F3F2F2F2F2F2F2F2F2F290
:10193000F2F2F2F2F2F2F2F2F2F2F2F2F2F2F2F287
:10194000F2F2F2F2F2F2F2F2F2F2F2F2F2F2F2F277
:10195000F2F2F2F2F2F2F2F2F2F2F2F2F2F2F2F267
:10196000F2F2F2F1F1F1F1F1F1F1F1F1F1F1F1F164
:10197000F1F1F1F1F1F1F1F1F1F1F1F1F1F1F1F157
:10198000F1F1F1F1F1F1F1F1F1F1F1F1F1F1F1F147
:10199000F1F1F1F1F1F1F1F1F1F1F1F1F1F0F0F03A
:1019A000F0F0F0F0F0F0F0F0F0F0F0F0F0F0F0F037
:1019B000F0F0F0F0F0F0F0F0F0F0F0F0F0F0F0F027
:1019C000F0F0F0F0F0F0F0F0F0F0F0F0F0F0F0F017
:1019D000F0F0F0F0F0EFEFEFEFEFEFEFEFEFEFEF12
:1019E000EFEFEFEFEFEFEFEFEFEFEFEFEFEFEFEF07
:1019F000EFEFEFEFEFEFEFEFEFEFEFEFEFEFEFEFF7
:101A0000EFEFEFEFEFEFEFEFEFEFEFEEEEEEEEEEEB
:101A1000EEEEEEEEEEEEEEEEEEEEEEEEEEEEEEEEE6
:101A2000EEEEEEEEEEEEEEEEEEEEEEEEEEEEEEEED6
:101A3000EEEEEEEEEEEEEEEEEEEEEEEEEEEEEEEEC6
:101A4000EDEDEDEDEDEDEDEDEDEDEDEDEDEDEDEDC6
:101A5000EDEDEDEDEDEDEDEDEDEDEDEDEDEDEDEDB6
:101A6000EDEDEDEDEDEDEDEDEDEDEDEDEDEDEDEDA6
:101A7000EDEDECECECECECECECECECECECECECECA4
:101A8000ECECECECECECECECECECECECECECECEC96
:101A9000ECECECECECECECECECECECECECECECEC86
:101AA000ECECECECEBEBEBEBEBEBEBEBEBEBEBEB82
:101AB000EBEBEBEBEBEBEBEBEBEBEBEBEBEBEBEB76
:101AC000EBEBEBEBEBEBEBEBEBEBEBEBEBEBEBEB66
:101AD000EBEBEBEBEAEAEAEAEAEAEAEAEAEAEAEA62
:101AE000EAEAEAEAEAEAEAEAEAEAEAEAEAEAEAEA56
:101AF000EAEAEAEAEAEAEAEAEAEAEAEAEAEAEAEA46
:101B0000EAEAEAE9E9E9E9E9E9E9E9E9E9E9E9E942
:101B1000E9E9E9E9E9E9E9E9E9E9E9E9E9E9E9E935
:101B2000E9E9E9E9E9E9E9E9E9E9E9E9E9E9E9E925
:101B3000E9E8E8E8E8E8E8E8E8E8E8E8E8E8E8E824
:101B4000E8E8E8E8E8E8E8E8E8E8E8E8E8E8E8E815
:101B5000E8E8E8E8E8E8E8E8E8E8E8E8E8E8E7E707
:101B6000E7E7E7E7E7E7E7E7E7E7E7E7E7E7E7E705
:101B7000E7E7E7E7E7E7E7E7E7E7E7E7E7E7E7E7F5
:101B8000E7E7E7E7E7E7E7E7E7E7E6E6E6E6E6E6EB
:101B9000E6E6E6E6E6E6E6E6E6E6E6E6E6E6E6E6E5
:101BA000E6E6E6E6E6E6E6E6E6E6E6E6E6E6E6E6D5
:101BB000E6E6E6E6E6E6E5E5E5E5E5E5E5E5E5E5CF
:101BC000E5E5E5E5E5E5E5E5E5E5E5E5E5E5E5E5C5
:101BD000E5E5E5E5E5E5E5E5E5E5E5E5E5E5E5E5B5
:101BE000E4E4E4E4E4E4E4E4E4E4E4E4E4E4E4E4B5
:101BF000E4E4E4E4E4E4E4E4E4E4E4E4E4E4E4E4A5
:101C0000E4E4E4E4E4E4E4E4E4E4E3E3E3E3E3E39A
:101C1000E3E3E3E3E3E3E3E3E3E3E3E3E3E3E3E394
:101C2000E3E3E3E3E3E3E3E3E3E3E3E3E3E3E3E384
:101C3000E3E3E3E2E2E2E2E2E2E2E2E2E2E2E2E281
:101C4000E2E2E2E2E2E2E2E2E2E2E2E2E2E2E2E274
:101C5000E2E2E2E2E2E2E2E2E2E2E2E1E1E1E1E169
:101C6000E1E1E1E1E1E1E1E1E1E1E1E1E1E1E1E164
:101C7000E1E1E1E1E1E1E1E1E1E1E1E1E1E1E1E154
:101C8000E1E1E1E0E0E0E0E0E0E0E0E0E0E0E0E051
:101C9000E0E0E0E0E0E0E0E0E0E0E0E0E0E0E0E044
:101CA000E0E0E0E0E0E0E0E0E0E0DFDFDFDFDFDF3A
:101CB000DFDFDFDFDFDFDFDFDFDFDFDFDFDFDFDF34
:101CC000DFDFDFDFDFDFDFDFDFDFDFDFDFDFDFDF24
:101CD000DEDEDEDEDEDEDEDEDEDEDEDEDEDEDEDE24
:101CE000DEDEDEDEDEDEDEDEDEDEDEDEDEDEDEDE14
:101CF000DEDEDEDEDEDEDDDDDDDDDDDDDDDDDDDD0E
:101D0000DDDDDDDDDDDDDDDDDDDDDDDDDDDDDDDD03
:101D1000DDDDDDDDDDDDDDDDDDDDDDDDDCDCDCDCF7
:101D2000DCDCDCDCDCDCDCDCDCDCDCDCDCDCDCDCF3
:101D3000DCDCDCDCDCDCDCDCDCDCDCDCDCDCDCDCE3
:101D4000DCDBDBDBDBDBDBDBDBDBDBDBDBDBDBDBE2
:101D5000DBDBDBDBDBDBDBDBDBDBDBDBDBDBDBDBD3
:101D6000DBDBDBDBDBDBDADADADADADADADADADACD
:101D7000DADADADADADADADADADADADADADADADAC3
:101D8000DADADADADADADADADADAD9D9D9D9D9D9B9
:101D9000D9D9D9D9D9D9D9D9D9D9D9D9D9D9D9D9B3
:101DA000D9D9D9D9D9D9D9D9D9D9D9D9D9D8D8D8A6
:101DB000D8D8D8D8D8D8D8D8D8D8D8D8D8D8D8D8A3
:101DC000D8D8D8D8D8D8D8D8D8D8D8D8D8D8D8D893
:101DD000D8D7D7D7D7D7D7D7D7D7D7D7D7D7D7D792
:101DE000D7D7D7D7D7D7D7D7D7D7D7D7D7D7D7D783
:101DF000D7D7D7D7D6D6D6D6D6D6D6D6D6D6D6D67F
:101E0000D6D6D6D6D6D6D6D6D6D6D6D6D6D6D6D672
:101E1000D6D6D6D6D6D6D5D5D5D5D5D5D5D5D5D56C
:101E2000D5D5D5D5D5D5D5D5D5D5D5D5D5D5D5D562
:101E3000D5D5D5D5D5D5D5D5D5D4D4D4D4D4D4D459
:101E4000D4D4D4D4D4D4D4D4D4D4D4D4D4D4D4D452
:101E5000D4D4D4D4D4D4D4D4D4D4D3D3D3D3D3D348
:101E6000D3D3D3D3D3D3D3D3D3D3D3D3D3D3D3D342
:101E7000D3D3D3D3D3D3D3D3D3D3D3D3D2D2D2D236
:101E8000D2D2D2D2D2D2D2D2D2D2D2D2D2D2D2D232
:101E9000D2D2D2D2D2D2D2D2D2D2D2D2D2D1D1D125
:101EA000D1D1D1D1D1D1D1D1D1D1D1D1D1D1D1D122
:101EB000D1D1D1D1D1D1D1D1D1D1D1D1D1D1D0D014
:101EC000D0D0D0D0D0D0D0D0D0D0D0D0D0D0D0D012
:101ED000D0D0D0D0D0D0D0D0D0D0D0D0D0D0D0CF03
:101EE000CFCFCFCFCFCFCFCFCFCFCFCFCFCFCFCF02
:101EF000CFCFCFCFCFCFCFCFCFCFCFCFCFCFCFCEF3
:101F0000CECECECECECECECECECECECECECECECEF1
:101F1000CECECECECECECECECECECECECECECECEE1
:101F2000CDCDCDCDCDCDCDCDCDCDCDCDCDCDCDCDE1
:101F3000CDCDCDCDCDCDCDCDCDCDCDCDCDCDCDCCD2
:101F4000CCCCCCCCCCCCCCCCCCCCCCCCCCCCCCCCD1
:101F5000CCCCCCCCCCCCCCCCCCCCCCCCCCCCCCCBC2
:101F6000CBCBCBCBCBCBCBCBCBCBCBCBCBCBCBCBC1
:101F7000CBCBCBCBCBCBCBCBCBCBCBCBCBCBCACAB3
:101F8000CACACACACACACACACACACACACACACACAB1
:101F9000CACACACACACACACACACACACACACAC9C9A3
:101FA000C9C9C9C9C9C9C9C9C9C9C9C9C9C9C9C9A1
:101FB000C9C9C9C9C9C9C9C9C9C9C9C9C9C8C8C894
:101FC000C8C8C8C8C8C8C8C8C8C8C8C8C8C8C8C891
:101FD000C8C8C8C8C8C8C8C8C8C8C8C7C7C7C7C786
:101FE000C7C7C7C7C7C7C7C7C7C7C7C7C7C7C7C781
:101FF000C7C7C7C7C7C7C7C7C7C7C6C6C6C6C6C677
:10200000C6C6C6C6C6C6C6C6C6C6C6C6C6C6C6C670
:10201000C6C6C6C6C6C6C6C6C5C5C5C5C5C5C5C568
:10202000C5C5C5C5C5C5C5C5C5C5C5C5C5C5C5C560
:10203000C5C5C5C5C5C5C4C4C4C4C4C4C4C4C4C45A
:10204000C4C4C4C4C4C4C4C4C4C4C4C4C4C4C4C450
:10205000C4C4C4C4C3C3C3C3C3C3C3C3C3C3C3C34C
:10206000C3C3C3C3C3C3C3C3C3C3C3C3C3C3C3C340
:10207000C3C3C2C2C2C2C2C2C2C2C2C2C2C2C2C23E
:10208000C2C2C2C2C2C2C2C2C2C2C2C2C2C2C2C230
:10209000C1C1C1C1C1C1C1C1C1C1C1C1C1C1C1C130
:1020A000C1C1C1C1C1C1C1C1C1C1C1C1C1C0C0C023
:1020B000C0C0C0C0C0C0C0C0C0C0C0C0C0C0C0C020
:1020C000C0C0C0C0C0C0C0C0C0C0BFBFBFBFBFBF16
:1020D000BFBFBFBFBFBFBFBFBFBFBFBFBFBFBFBF10
:1020E000BFBFBFBFBFBFBFBEBEBEBEBEBEBEBEBE09
:1020F000BEBEBEBEBEBEBEBEBEBEBEBEBEBEBEBE00
:10210000BEBEBEBEBDBDBDBDBDBDBDBDBDBDBDBDFB
:10211000BDBDBDBDBDBDBDBDBDBDBDBDBDBDBDBDEF
:10212000BDBCBCBCBCBCBCBCBCBCBCBCBCBCBCBCEE
:10213000BCBCBCBCBCBCBCBCBCBCBCBCBCBCBBBBE1
:10214000BBBBBBBBBBBBBBBBBBBBBBBBBBBBBBBBDF
:10215000BBBBBBBBBBBBBBBBBBBBBABABABABABAD5
:10216000BABABABABABABABABABABABABABABABACF
:10217000BABABABABABABAB9B9B9B9B9B9B9B9B9C8
:10218000B9B9B9B9B9B9B9B9B9B9B9B9B9B9B9B9BF
:10219000B9B9B9B8B8B8B8B8B8B8B8B8B8B8B8B8BC
:1021A000B8B8B8B8B8B8B8B8B8B8B8B8B8B8B8B7B0
:1021B000B7B7B7B7B7B7B7B7B7B7B7B7B7B7B7B7AF
:1021C000B7B7B7B7B7B7B7B7B7B7B7B6B6B6B6B6A4
:1021D000B6B6B6B6B6B6B6B6B6B6B6B6B6B6B6B69F
:1021E000B6B6B6B6B6B6B6B5B5B5B5B5B5B5B5B598
:1021F000B5B5B5B5B5B5B5B5B5B5B5B5B5B5B5B58F
:10220000B5B5B5B4B4B4B4B4B4B4B4B4B4B4B4B48B
:10221000B4B4B4B4B4B4B4B4B4B4B4B4B4B4B3B380
:10222000B3B3B3B3B3B3B3B3B3B3B3B3B3B3B3B37E
:10223000B3B3B3B3B3B3B3B3B3B3B2B2B2B2B2B274
:10224000B2B2B2B2B2B2B2B2B2B2B2B2B2B2B2B26E
:10225000B2B2B2B2B2B1B1B1B1B1B1B1B1B1B1B169
:10226000B1B1B1B1B1B1B1B1B1B1B1B1B1B1B1B15E
:10227000B0B0B0B0B0B0B0B0B0B0B0B0B0B0B0B05E
:10228000B0B0B0B0B0B0B0B0B0B0B0B0AFAFAFAF52
:10229000AFAFAFAFAFAFAFAFAFAFAFAFAFAFAFAF4E
:1022A000AFAFAFAFAFAFAFAEAEAEAEAEAEAEAEAE47
:1022B000AEAEAEAEAEAEAEAEAEAEAEAEAEAEAEAE3E
:1022C000AEAEADADADADADADADADADADADADADAD3C
:1022D000ADADADADADADADADADADADADADACACAC31
:1022E000ACACACACACACACACACACACACACACACAC2E
:1022F000ACACACACACACACACABABABABABABABAB26
:10230000ABABABABABABABABABABABABABABABAB1D
:10231000ABABAAAAAAAAAAAAAAAAAAAAAAAAAAAA1B
:10232000AAAAAAAAAAAAAAAAAAAAAAAAAAA9A9A910
:10233000A9A9A9A9A9A9A9A9A9A9A9A9A9A9A9A90D
:10234000A9A9A9A9A9A9A9A9A8A8A8A8A8A8A8A805
:10235000A8A8A8A8A8A8A8A8A8A8A8A8A8A8A8A8FD
:10236000A8A8A7A7A7A7A7A7A7A7A7A7A7A7A7A7FB
:10237000A7A7A7A7A7A7A7A7A7A7A7A7A7A6A6A6F0
:10238000A6A6A6A6A6A6A6A6A6A6A6A6A6A6A6A6ED
:10239000A6A6A6A6A6A6A6A5A5A5A5A5A5A5A5A5E6
:1023A000A5A5A5A5A5A5A5A5A5A5A5A5A5A5A5A5DD
:1023B000A5A4A4A4A4A4A4A4A4A4A4A4A4A4A4A4DC
:1023C000A4A4A4A4A4A4A4A4A4A4A4A3A3A3A3A3D2
:1023D000A3A3A3A3A3A3A3A3A3A3A3A3A3A3A3A3CD
:1023E000A3A3A3A3A3A3A2A2A2A2A2A2A2A2A2A2C7
:1023F000A2A2A2A2A2A2A2A2A2A2A2A2A2A2A2A2BD
:10240000A1A1A1A1A1A1A1A1A1A1A1A1A1A1A1A1BC
:10241000A1A1A1A1A1A1A1A1A1A1A0A0A0A0A0A0B2
:10242000A0A0A0A0A0A0A0A0A0A0A0A0A0A0A0A0AC
:10243000A0A0A0A09F9F9F9F9F9F9F9F9F9F9F9FA8
:102440009F9F9F9F9F9F9F9F9F9F9F9F9F9F9E9E9E
:102450009E9E9E9E9E9E9E9E9E9E9E9E9E9E9E9E9C
:102460009E9E9E9E9E9E9E9E9D9D9D9D9D9D9D9D94
:102470009D9D9D9D9D9D9D9D9D9D9D9D9D9D9D9D8C
:102480009D9C9C9C9C9C9C9C9C9C9C9C9C9C9C9C8B
:102490009C9C9C9C9C9C9C9C9C9C9C9B9B9B9B9B81
:1024A0009B9B9B9B9B9B9B9B9B9B9B9B9B9B9B9B7C
:1024B0009B9B9B9B9B9A9A9A9A9A9A9A9A9A9A9A77
:1024C0009A9A9A9A9A9A9A9A9A9A9A9A9A9A9A996D
:1024D000999999999999999999999999999999996C
:1024E0009999999999999999989898989898989864
:1024F000989898989898989898989898989898985C
:102500009898979797979797979797979797979759
:102510009797979797979797979797969696969650
:10252000969696969696969696969696969696964B
:102530009696969696959595959595959595959546
:10254000959595959595959595959595959594943D
:10255000949494949494949494949494949494943B
:102560009494949494949494939393939393939333
:10257000939393939393939393939393939393932B
:10258000939292929292929292929292929292922A
:102590009292929292929292929291919191919121
:1025A000919191919191919191919191919191911B
:1025B0009191919190909090909090909090909017
:1025C000909090909090909090909090908F8F8F0E
:1025D0008F8F8F8F8F8F8F8F8F8F8F8F8F8F8F8F0B
:1025E0008F8F8F8F8F8F8E8E8E8E8E8E8E8E8E8E05
:1025F0008E8E8E8E8E8E8E8E8E8E8E8E8E8E8E8EFB
:102600008D8D8D8D8D8D8D8D8D8D8D8D8D8D8D8DFA
:102610008D8D8D8D8D8D8D8D8D8C8C8C8C8C8C8CF1
:102620008C8C8C8C8C8C8C8C8C8C8C8C8C8C8C8CEA
:102630008C8C8B8B8B8B8B8B8B8B8B8B8B8B8B8BE8
:102640008B8B8B8B8B8B8B8B8B8B8B8A8A8A8A8ADF
:102650008A8A8A8A8A8A8A8A8A8A8A8A8A8A8A8ADA
:102660008A8A8A8A898989898989898989898989D6
:1026700089898989898989898989898989898888CC
:1026800088888888888888888888888888888888CA
:1026900088888888888888878787878787878787C3
:1026A00087878787878787878787878787878787BA
:1026B00086868686868686868686868686868686BA
:1026C00086868686868686868685858585858585B1
:1026D00085858585858585858585858585858585AA
:1026E00085858484848484848484848484848484A8
:1026F000848484848484848484848483838383839F
:102700008383838383838383838383838383838399
:102710008383838382828282828282828282828295
:10272000828282828282828282828282828181818C
:102730008181818181818181818181818181818189
:102740008181818181818080808080808080808083
:102750008080808080808080808080808080807F7A
:102760007F7F7F7F7F7F7F7F7F7F7F7F7F7F7F7F79
:102770007F7F7F7F7F7F7F7F7E7E7E7E7E7E7E7E71
:102780007E7E7E7E7E7E7E7E7E7E7E7E7E7E7E7E69
:102790007E7E7D7D7D7D7D7D7D7D7D7D7D7D7D7D67
:1027A0007D7D7D7D7D7D7D7D7D7D7D7C7C7C7C7C5E
:1027B0007C7C7C7C7C7C7C7C7C7C7C7C7C7C7C7C59
:1027C0007C7C7C7C7B7B7B7B7B7B7B7B7B7B7B7B55
:1027D0007B7B7B7B7B7B7B7B7B7B7B7B7B7A7A7A4C
:1027E0007A7A7A7A7A7A7A7A7A7A7A7A7A7A7A7A49
:1027F0007A7A7A7A7A7A7979797979797979797943
:102800007979797979797979797979797979797839
:102810007878787878787878787878787878787838
:102820007878787878787878777777777777777730
:102830007777777777777777777777777777777728
:102840007776767676767676767676767676767627
:10285000767676767676767676767575757575751E
:102860007575757575757575757575757575757518
:102870007575757474747474747474747474747415
:10288000747474747474747474747474747373730B
:102890007373737373737373737373737373737308
:1028A0007373737373737272727272727272727202
:1028B00072727272727272727272727272727271F9
:1028C00071717171717171717171717171717171F8
:1028D00071717171717171717070707070707070F0
:1028E00070707070707070707070707070707070E8
:1028F000706F6F6F6F6F6F6F6F6F6F6F6F6F6F6FE7
:102900006F6F6F6F6F6F6F6F6F6F6F6E6E6E6E6EDC
:102910006E6E6E6E6E6E6E6E6E6E6E6E6E6E6E6ED7
:102920006E6E6E6E6D6D6D6D6D6D6D6D6D6D6D6DD3
:102930006D6D6D6D6D6D6D6D6D6D6D6D6D6C6C6CCA
:102940006C6C6C6C6C6C6C6C6C6C6C6C6C6C6C6CC7
:102950006C6C6C6C6C6C6C6B6B6B6B6B6B6B6B6BC0
:102960006B6B6B6B6B6B6B6B6B6B6B6B6B6B6B6BB7
:102970006A6A6A6A6A6A6A6A6A6A6A6A6A6A6A6AB7
:102980006A6A6A6A6A6A6A6A6A69696969696969AE
:1029900069696969696969696969696969696969A7
:1029A00069696968686868686868686868686868A4
:1029B000686868686868686868686868676767679B
:1029C0006767676767676767676767676767676797
:1029D0006767676767676666666666666666666691
:1029E0006666666666666666666666666666666588
:1029F0006565656565656565656565656565656587
:102A0000656565656565656565646464646464647D
:102A10006464646464646464646464646464646476
:102A20006464636363636363636363636363636374
:102A3000636363636363636363636363626262626A
:102A40006262626262626262626262626262626266
:102A50006262626262626161616161616161616160
:102A60006161616161616161616161616161616156
:102A70006060606060606060606060606060606056
:102A80006060606060606060605F5F5F5F5F5F5F4D
:102A90005F5F5F5F5F5F5F5F5F5F5F5F5F5F5F5F46
:102AA0005F5F5F5E5E5E5E5E5E5E5E5E5E5E5E5E43
:102AB0005E5E5E5E5E5E5E5E5E5E5E5E5E5D5D5D39
:102AC0005D5D5D5D5D5D5D5D5D5D5D5D5D5D5D5D36
:102AD0005D5D5D5D5D5D5D5C5C5C5C5C5C5C5C5C2F
:102AE0005C5C5C5C5C5C5C5C5C5C5C5C5C5C5C5C26
:102AF0005C5B5B5B5B5B5B5B5B5B5B5B5B5B5B5B25
:102B00005B5B5B5B5B5B5B5B5B5B5B5A5A5A5A5A1A
:102B10005A5A5A5A5A5A5A5A5A5A5A5A5A5A5A5A15
:102B20005A5A5A5A5A5A595959595959595959590F
:102B30005959595959595959595959595959595905
:102B40005858585858585858585858585858585805
:102B500058585858585858585858575757575757FB
:102B600057575757575757575757575757575757F5
:102B700057575757565656565656565656565656F1
:102B800056565656565656565656565656565655E6
:102B900055555555555555555555555555555555E5
:102BA00055555555555555555554545454545454DC
:102BB00054545454545454545454545454545454D5
:102BC00054545454535353535353535353535353D1
:102BD00053535353535353535353535353535352C6
:102BE00052525252525252525252525252525252C5
:102BF00052525252525252525251515151515151BC
:102C000051515151515151515151515151515151B4
:102C100051515151505050505050505050505050B0
:102C20005050505050505050505050505050504FA5
:102C30004F4F4F4F4F4F4F4F4F4F4F4F4F4F4F4FA4
:102C40004F4F4F4F4F4F4F4F4F4F4E4E4E4E4E4E9A
:102C50004E4E4E4E4E4E4E4E4E4E4E4E4E4E4E4E94
:102C60004E4E4E4E4E4D4D4D4D4D4D4D4D4D4D4D8F
:102C70004D4D4D4D4D4D4D4D4D4D4D4D4D4D4D4D84
:102C80004D4C4C4C4C4C4C4C4C4C4C4C4C4C4C4C83
:102C90004C4C4C4C4C4C4C4C4C4C4C4C4B4B4B4B78
:102CA0004B4B4B4B4B4B4B4B4B4B4B4B4B4B4B4B74
:102CB0004B4B4B4B4B4B4B4A4A4A4A4A4A4A4A4A6D
:102CC0004A4A4A4A4A4A4A4A4A4A4A4A4A4A4A4A64
:102CD0004A4A4A4949494949494949494949494961
:102CE0004949494949494949494949494949484856
:102CF0004848484848484848484848484848484854
:102D00004848484848484848484847474747474749
:102D10004747474747474747474747474747474743
:102D2000474747474747464646464646464646463D
:102D30004646464646464646464646464646464633
:102D40004646454545454545454545454545454531
:102D50004545454545454545454545454545444425
:102D60004444444444444444444444444444444423
:102D70004444444444444444444443434343434319
:102D80004343434343434343434343434343434313
:102D9000434343434343434242424242424242420C
:102DA0004242424242424242424242424242424203
:102DB0004242424141414141414141414141414100
:102DC00041414141414141414141414141414141F3
:102DD00040404040404040404040404040404040F3
:102DE000404040404040404040404040403F3F3FE6
:102DF0003F3F3F3F3F3F3F3F3F3F3F3F3F3F3F3FE3
:102E00003F3F3F3F3F3F3F3F3F3F3E3E3E3E3E3ED8
:102E10003E3E3E3E3E3E3E3E3E3E3E3E3E3E3E3ED2
:102E20003E3E3E3E3E3E3E3D3D3D3D3D3D3D3D3DCB
:102E30003D3D3D3D3D3D3D3D3D3D3D3D3D3D3D3DC2
:102E40003D3D3D3D3C3C3C3C3C3C3C3C3C3C3C3CBE
:102E50003C3C3C3C3C3C3C3C3C3C3C3C3C3C3C3CB2
:102E60003C3B3B3B3B3B3B3B3B3B3B3B3B3B3B3BB1
:102E70003B3B3B3B3B3B3B3B3B3B3B3B3B3B3B3AA3
:102E80003A3A3A3A3A3A3A3A3A3A3A3A3A3A3A3AA2
:102E90003A3A3A3A3A3A3A3A3A3A3A3A3A39393995
:102EA0003939393939393939393939393939393992
:102EB0003939393939393939393939383838383887
:102EC0003838383838383838383838383838383882
:102ED0003838383838383838383737373737373779
:102EE0003737373737373737373737373737373772
:102EF000373737373737373636363636363636366B
:102F00003636363636363636363636363636363661
:102F1000363636363636353535353535353535355B
:102F20003535353535353535353535353535353551
:102F3000353535353434343434343434343434344D
:102F40003434343434343434343434343434343441
:102F5000343434333333333333333333333333333E
:102F60003333333333333333333333333333333331
:102F7000333333323232323232323232323232322E
:102F80003232323232323232323232323232323221
:102F9000323231313131313131313131313131311F
:102FA0003131313131313131313131313131313111
:102FB000313130303030303030303030303030300F
:102FC0003030303030303030303030303030303001
:102FD000302F2F2F2F2F2F2F2F2F2F2F2F2F2F2F00
:102FE0002F2F2F2F2F2F2F2F2F2F2F2F2F2F2F2FF1
:102FF0002F2F2E2E2E2E2E2E2E2E2E2E2E2E2E2EEF
:103000002E2E2E2E2E2E2E2E2E2E2E2E2E2E2E2EE0
:103010002E2E2D2D2D2D2D2D2D2D2D2D2D2D2D2DDE
:103020002D2D2D2D2D2D2D2D2D2D2D2D2D2D2D2DD0
:103030002D2D2D2C2C2C2C2C2C2C2C2C2C2C2C2CCD
:103040002C2C2C2C2C2C2C2C2C2C2C2C2C2C2C2CC0
:103050002C2C2C2C2B2B2B2B2B2B2B2B2B2B2B2BBC
:103060002B2B2B2B2B2B2B2B2B2B2B2B2B2B2B2BB0
:103070002B2B2B2B2B2A2A2A2A2A2A2A2A2A2A2AAB
:103080002A2A2A2A2A2A2A2A2A2A2A2A2A2A2A2AA0
:103090002A2A2A2A2A2A2A29292929292929292999
:1030A0002929292929292929292929292929292990
:1030B0002929292929292929282828282828282888
:1030C0002828282828282828282828282828282880
:1030D0002828282828282828282828272727272775
:1030E0002727272727272727272727272727272770
:1030F0002727272727272727272727272726262663
:10310000262626262626262626262626262626265F
:10311000262626262626262626262626262626264F
:10312000252525252525252525252525252525254F
:10313000252525252525252525252525252525253F
:10314000252525252424242424242424242424243B
:10315000242424242424242424242424242424242F
:103160002424242424242423232323232323232328
:10317000232323232323232323232323232323231F
:103180002323232323232323232323222222222214
:10319000222222222222222222222222222222220F
:1031A00022222222222222222222222222222222FF
:1031B00021212121212121212121212121212121FF
:1031C00021212121212121212121212121212121EF
:1031D00021212121212020202020202020202020EA
:1031E00020202020202020202020202020202020DF
:1031F00020202020202020202020201F1F1F1F1FD4
:103200001F1F1F1F1F1F1F1F1F1F1F1F1F1F1F1FCE
:103210001F1F1F1F1F1F1F1F1F1F1F1F1F1F1F1FBE
:103220001F1E1E1E1E1E1E1E1E1E1E1E1E1E1E1EBD
:103230001E1E1E1E1E1E1E1E1E1E1E1E1E1E1E1EAE
:103240001E1E1E1E1E1E1E1D1D1D1D1D1D1D1D1DA7
:103250001D1D1D1D1D1D1D1D1D1D1D1D1D1D1D1D9E
:103260001D1D1D1D1D1D1D1D1D1D1D1D1D1D1C1C90
:103270001C1C1C1C1C1C1C1C1C1C1C1C1C1C1C1C8E
:103280001C1C1C1C1C1C1C1C1C1C1C1C1C1C1C1C7E
:103290001C1C1C1C1C1C1B1B1B1B1B1B1B1B1B1B78
:1032A0001B1B1B1B1B1B1B1B1B1B1B1B1B1B1B1B6E
:1032B0001B1B1B1B1B1B1B1B1B1B1B1B1B1B1A1A60
:1032C0001A1A1A1A1A1A1A1A1A1A1A1A1A1A1A1A5E
:1032D0001A1A1A1A1A1A1A1A1A1A1A1A1A1A1A1A4E
:1032E0001A1A1A1A1A1A1A19191919191919191947
:1032F000191919191919191919191919191919193E
:10330000191919191919191919191919191919192D
:10331000191818181818181818181818181818182C
:10332000181818181818181818181818181818181D
:103330001818181818181818181818171717171712
:10334000171717171717171717171717171717170D
:1033500017171717171717171717171717171717FD
:1033600017171717171717161616161616161616F6
:1033700016161616161616161616161616161616ED
:1033800016161616161616161616161616161616DD
:1033900016161615151515151515151515151515DA
:1033A00015151515151515151515151515151515CD
:1033B00015151515151515151515151515151515BD
:1033C00014141414141414141414141414141414BD
:1033D00014141414141414141414141414141414AD
:1033E000141414141414141414141414141413139F
:1033F000131313131313131313131313131313139D
:10340000131313131313131313131313131313138C
:10341000131313131313131313131313131212127F
:10342000121212121212121212121212121212127C
:10343000121212121212121212121212121212126C
:10344000121212121212121212121212121111115F
:10345000111111111111111111111111111111115C
:10346000111111111111111111111111111111114C
:10347000111111111111111111111111111111103D
:10348000101010101010101010101010101010103C
:10349000101010101010101010101010101010102C
:1034A000101010101010101010101010101010101C
:1034B000100F0F0F0F0F0F0F0F0F0F0F0F0F0F0F1B
:1034C0000F0F0F0F0F0F0F0F0F0F0F0F0F0F0F0F0C
:1034D0000F0F0F0F0F0F0F0F0F0F0F0F0F0F0F0FFC
:1034E0000F0F0F0F0F0F0E0E0E0E0E0E0E0E0E0EF6
:1034F0000E0E0E0E0E0E0E0E0E0E0E0E0E0E0E0EEC
:103500000E0E0E0E0E0E0E0E0E0E0E0E0E0E0E0EDB
:103510000E0E0E0E0E0E0E0E0E0E0E0E0D0D0D0DCF
:103520000D0D0D0D0D0D0D0D0D0D0D0D0D0D0D0DCB
:103530000D0D0D0D0D0D0D0D0D0D0D0D0D0D0D0DBB
:103540000D0D0D0D0D0D0D0D0D0D0D0D0D0D0D0DAB
:103550000D0D0D0D0C0C0C0C0C0C0C0C0C0C0C0CA7
:103560000C0C0C0C0C0C0C0C0C0C0C0C0C0C0C0C9B
:103570000C0C0C0C0C0C0C0C0C0C0C0C0C0C0C0C8B
:103580000C0C0C0C0C0C0C0C0C0C0C0C0C0C0B0B7D
:103590000B0B0B0B0B0B0B0B0B0B0B0B0B0B0B0B7B
:1035A0000B0B0B0B0B0B0B0B0B0B0B0B0B0B0B0B6B
:1035B0000B0B0B0B0B0B0B0B0B0B0B0B0B0B0B0B5B
:1035C0000B0B0B0B0B0B0B0B0B0B0A0A0A0A0A0A51
:1035D0000A0A0A0A0A0A0A0A0A0A0A0A0A0A0A0A4B
:1035E0000A0A0A0A0A0A0A0A0A0A0A0A0A0A0A0A3B
:1035F0000A0A0A0A0A0A0A0A0A0A0A0A0A0A0A0A2B
:103600000A0A0A0A0A0A0A0A0A0909090909090921
:10361000090909090909090909090909090909091A
:10362000090909090909090909090909090909090A
:1036300009090909090909090909090909090909FA
:1036400009090909090909090909090808080808EF
:1036500008080808080808080808080808080808EA
:1036600008080808080808080808080808080808DA
:1036700008080808080808080808080808080808CA
:1036800008080808080808080808080808080808BA
:1036900008070707070707070707070707070707B9
:1036A00007070707070707070707070707070707AA
:1036B000070707070707070707070707070707079A
:1036C000070707070707070707070707070707078A
:1036D000070707070707070707070706060606067F
:1036E000060606060606060606060606060606067A
:1036F000060606060606060606060606060606066A
:103700000606060606060606060606060606060659
:103710000606060606060606060606060606060649
:10372000060606060606060606060505050505053F
:103730000505050505050505050505050505050539
:103740000505050505050505050505050505050529
:103750000505050505050505050505050505050519
:103760000505050505050505050505050505050509
:1037700005050505050505050505050505050505F9
:1037800004040404040404040404040404040404F9
:1037900004040404040404040404040404040404E9
:1037A00004040404040404040404040404040404D9
:1037B00004040404040404040404040404040404C9
:1037C00004040404040404040404040404040404B9
:1037D00004040404040404040404040404040403AA
:1037E00003030303030303030303030303030303A9
:1037F0000303030303030303030303030303030399
:103800000303030303030303030303030303030388
:103810000303030303030303030303030303030378
:103820000303030303030303030303030303030368
:103830000303030303030303030303030303030358
:10384000030303030303030303030302020202024D
:103850000202020202020202020202020202020248
:103860000202020202020202020202020202020238
:103870000202020202020202020202020202020228
:103880000202020202020202020202020202020218
:103890000202020202020202020202020202020208
:1038A00002020202020202020202020202020202F8
:1038B00002020202020202020202020202020202E8
:1038C00002020202020202020202020101010101DD
:1038D00001010101010101010101010101010101D8
:1038E00001010101010101010101010101010101C8
:1038F00001010101010101010101010101010101B8
:1039000001010101010101010101010101010101A7
:103910000101010101010101010101010101010197
:103920000101010101010101010101010101010187
:103930000101010101010101010101010101010177
:103940000101010101010101010101010101010167
:103950000101010101010101010101010101010157
:103960000101010101010101010101010101010147
:103970000100000000000000000000000000000046
:103980000000000000000000000000000000000037
:103990000000000000000000000000000000000027
:1039A0000000000000000000000000000000000017
:1039B0000000000000000000000000000000000007
:103D30000101010101010202020202020202020269
:103D40000202020202020202020202020202020253
:103D50000202020202020202020202020202020243
:103D60000202020202020202020202020202020233
:103D70000202020202020202020202020202020223
:103D80000202020202020202020202020202020213
:103D90000202020202020202020202020202020203
:103DA00002020202020202020202020202020202F3
:103DB00002020202020203030303030303030303D9
:103DC00003030303030303030303030303030303C3
:103DD00003030303030303030303030303030303B3
:103DE00003030303030303030303030303030303A3
:103DF0000303030303030303030303030303030393
:103E00000303030303030303030303030303030382
:103E10000303030303030303030303030303030372
:103E20000303040404040404040404040404040454
:103E30000404040404040404040404040404040442
:103E40000404040404040404040404040404040432
:103E50000404040404040404040404040404040422
:103E60000404040404040404040404040404040412
:103E70000404040404040404040404040404040402
:103E800004050505050505050505050505050505E3
:103E900005050505050505050505050505050505D2
:103EA00005050505050505050505050505050505C2
:103EB00005050505050505050505050505050505B2
:103EC00005050505050505050505050505050505A2
:103ED0000505050505050506060606060606060689
:103EE0000606060606060606060606060606060672
:103EF0000606060606060606060606060606060662
:103F00000606060606060606060606060606060651
:103F10000606060606060606060606060606060641
:103F20000606060606060707070707070707070727
:103F30000707070707070707070707070707070711
:103F40000707070707070707070707070707070701
:103F500007070707070707070707070707070707F1
:103F600007070707070707070707070707070707E1
:103F700008080808080808080808080808080808C1
:103F800008080808080808080808080808080808B1
:103F900008080808080808080808080808080808A1
:103FA0000808080808080808080808080808080891
:103FB0000808080808080909090909090909090977
:103FC0000909090909090909090909090909090961
:103FD0000909090909090909090909090909090951
:103FE0000909090909090909090909090909090941
:103FF00009090909090909090A0A0A0A0A0A0A0A29
:104000000A0A0A0A0A0A0A0A0A0A0A0A0A0A0A0A10
:104010000A0A0A0A0A0A0A0A0A0A0A0A0A0A0A0A00
:104020000A0A0A0A0A0A0A0A0A0A0A0A0A0A0A0AF0
:104030000A0A0A0A0A0A0A0B0B0B0B0B0B0B0B0BD7
:104040000B0B0B0B0B0B0B0B0B0B0B0B0B0B0B0BC0
:104050000B0B0B0B0B0B0B0B0B0B0B0B0B0B0B0BB0
:104060000B0B0B0B0B0B0B0B0B0B0B0B0B0B0B0BA0
:104070000B0B0B0C0C0C0C0C0C0C0C0C0C0C0C0C83
:104080000C0C0C0C0C0C0C0C0C0C0C0C0C0C0C0C70
:104090000C0C0C0C0C0C0C0C0C0C0C0C0C0C0C0C60
:1040A0000C0C0C0C0C0C0C0C0C0C0C0C0C0D0D0D4D
:1040B0000D0D0D0D0D0D0D0D0D0D0D0D0D0D0D0D30
:1040C0000D0D0D0D0D0D0D0D0D0D0D0D0D0D0D0D20
:1040D0000D0D0D0D0D0D0D0D0D0D0D0D0D0D0D0D10
:1040E0000D0D0D0D0D0E0E0E0E0E0E0E0E0E0E0EF5
:1040F0000E0E0E0E0E0E0E0E0E0E0E0E0E0E0E0EE0
:104100000E0E0E0E0E0E0E0E0E0E0E0E0E0E0E0ECF
:104110000E0E0E0E0E0E0E0E0E0E0E0F0F0F0F0FBA
:104120000F0F0F0F0F0F0F0F0F0F0F0F0F0F0F0F9F
:104130000F0F0F0F0F0F0F0F0F0F0F0F0F0F0F0F8F
:104140000F0F0F0F0F0F0F0F0F0F0F0F0F0F0F0F7F
:10415000101010101010101010101010101010105F
:10416000101010101010101010101010101010104F
:10417000101010101010101010101010101010103F
:104180001010111111111111111111111111111121
:10419000111111111111111111111111111111110F
:1041A00011111111111111111111111111111111FF
:1041B00011111111121212121212121212121212E3
:1041C00012121212121212121212121212121212CF
:1041D00012121212121212121212121212121212BF
:1041E00012121212131313131313131313131313A3
:1041F000131313131313131313131313131313138F
:10420000131313131313131313131313131313137E
:104210001313131414141414141414141414141461
:10422000141414141414141414141414141414144E
:10423000141414141414141414141414141414143E
:10424000141515151515151515151515151515151F
:10425000151515151515151515151515151515150E
:1042600015151515151515151515151515151616FC
:1042700016161616161616161616161616161616DE
:1042800016161616161616161616161616161616CE
:1042900016161616161616161616171717171717B8
:1042A000171717171717171717171717171717179E
:1042B000171717171717171717171717171717178E
:1042C0001717171717171818181818181818181874
:1042D000181818181818181818181818181818185E
:1042E000181818181818181818181818181818184E
:1042F000191919191919191919191919191919192E
:10430000191919191919191919191919191919191D
:10431000191919191919191919191A1A1A1A1A1A07
:104320001A1A1A1A1A1A1A1A1A1A1A1A1A1A1A1AED
:104330001A1A1A1A1A1A1A1A1A1A1A1A1A1A1A1ADD
:104340001A1A1A1B1B1B1B1B1B1B1B1B1B1B1B1BC0
:104350001B1B1B1B1B1B1B1B1B1B1B1B1B1B1B1BAD
:104360001B1B1B1B1B1B1B1B1B1B1B1C1C1C1C1C98
:104370001C1C1C1C1C1C1C1C1C1C1C1C1C1C1C1C7D
:104380001C1C1C1C1C1C1C1C1C1C1C1C1C1C1C1C6D
:104390001C1C1C1D1D1D1D1D1D1D1D1D1D1D1D1D50
:1043A0001D1D1D1D1D1D1D1D1D1D1D1D1D1D1D1D3D
:1043B0001D1D1D1D1D1D1D1D1D1D1E1E1E1E1E1E27
:1043C0001E1E1E1E1E1E1E1E1E1E1E1E1E1E1E1E0D
:1043D0001E1E1E1E1E1E1E1E1E1E1E1E1E1E1E1EFD
:1043E0001F1F1F1F1F1F1F1F1F1F1F1F1F1F1F1FDD
:1043F0001F1F1F1F1F1F1F1F1F1F1F1F1F1F1F1FCD
:104400001F1F1F1F1F1F20202020202020202020B2
:10441000202020202020202020202020202020209C
:104420002020202020202020202020202121212188
:10443000212121212121212121212121212121216C
:10444000212121212121212121212121212121215C
:10445000212222222222222222222222222222223D
:10446000222222222222222222222222222222222C
:104470002222222222222323232323232323232312
:1044800023232323232323232323232323232323FC
:1044900023232323232323232323242424242424E6
:1044A00024242424242424242424242424242424CC
:1044B00024242424242424242424242424252525B9
:1044C000252525252525252525252525252525259C
:1044D000252525252525252525252525252525258C
:1044E000252626262626262626262626262626266D
:1044F000262626262626262626262626262626265C
:10450000262626262727272727272727272727273F
:10451000272727272727272727272727272727272B
:104520002727272727272828282828282828282811
:1045300028282828282828282828282828282828FB
:1045400028282828282828282829292929292929E4
:1045500029292929292929292929292929292929CB
:10456000292929292929292929292A2A2A2A2A2AB5
:104570002A2A2A2A2A2A2A2A2A2A2A2A2A2A2A2A9B
:104580002A2A2A2A2A2A2A2A2A2A2A2A2B2B2B2B87
:104590002B2B2B2B2B2B2B2B2B2B2B2B2B2B2B2B6B
:1045A0002B2B2B2B2B2B2B2B2B2B2B2B2B2C2C2C58
:1045B0002C2C2C2C2C2C2C2C2C2C2C2C2C2C2C2C3B
:1045C0002C2C2C2C2C2C2C2C2C2C2C2C2C2C2D2D29
:1045D0002D2D2D2D2D2D2D2D2D2D2D2D2D2D2D2D0B
:1045E0002D2D2D2D2D2D2D2D2D2D2D2D2D2D2D2EFA
:1045F0002E2E2E2E2E2E2E2E2E2E2E2E2E2E2E2EDB
:104600002E2E2E2E2E2E2E2E2E2E2E2E2E2E2E2FC9
:104610002F2F2F2F2F2F2F2F2F2F2F2F2F2F2F2FAA
:104620002F2F2F2F2F2F2F2F2F2F2F2F2F2F2F2F9A
:10463000303030303030303030303030303030307A
:104640003030303030303030303030303030303169
:10465000313131313131313131313131313131314A
:104660003131313131313131313131313131313239
:10467000323232323232323232323232323232321A
:104680003232323232323232323232323232333308
:1046900033333333333333333333333333333333EA
:1046A00033333333333333333333333333333434D8
:1046B00034343434343434343434343434343434BA
:1046C00034343434343434343434343434353535A7
:1046D000353535353535353535353535353535358A
:1046E0003535353535353535353535363636363675
:1046F000363636363636363636363636363636365A
:104700003636363636363636363637373737373743
:104710003737373737373737373737373737373729
:104720003737373737373737383838383838383811
:1047300038383838383838383838383838383838F9
:1047400038383838383839393939393939393939DF
:1047500039393939393939393939393939393939C9
:10476000393939393A3A3A3A3A3A3A3A3A3A3A3AAD
:104770003A3A3A3A3A3A3A3A3A3A3A3A3A3A3A3A99
:104780003A3A3B3B3B3B3B3B3B3B3B3B3B3B3B3B7B
:104790003B3B3B3B3B3B3B3B3B3B3B3B3B3B3B3B69
:1047A0003C3C3C3C3C3C3C3C3C3C3C3C3C3C3C3C49
:1047B0003C3C3C3C3C3C3C3C3C3C3C3C3C3D3D3D36
:1047C0003D3D3D3D3D3D3D3D3D3D3D3D3D3D3D3D19
:1047D0003D3D3D3D3D3D3D3D3D3D3E3E3E3E3E3E03
:1047E0003E3E3E3E3E3E3E3E3E3E3E3E3E3E3E3EE9
:1047F0003E3E3E3E3E3E3E3F3F3F3F3F3F3F3F3FD0
:104800003F3F3F3F3F3F3F3F3F3F3F3F3F3F3F3FB8
:104810003F3F3F3F4040404040404040404040409C
:104820004040404040404040404040404040404088
:104830004041414141414141414141414141414169
:104840004141414141414141414141414141424256
:104850004242424242424242424242424242424238
:104860004242424242424242424243434343434322
:104870004343434343434343434343434343434308
:1048800043434343434343444444444444444444EF
:1048900044444444444444444444444444444444D8
:1048A00044444445454545454545454545454545BB
:1048B00045454545454545454545454545454546A7
:1048C0004646464646464646464646464646464688
:1048D0004646464646464646464646474747474773
:1048E0004747474747474747474747474747474758
:1048F000474747474747474848484848484848483F
:104900004848484848484848484848484848484827
:10491000484848494949494949494949494949490A
:1049200049494949494949494949494949494A4AF5
:104930004A4A4A4A4A4A4A4A4A4A4A4A4A4A4A4AD7
:104940004A4A4A4A4A4A4A4A4A4A4B4B4B4B4B4BC1
:104950004B4B4B4B4B4B4B4B4B4B4B4B4B4B4B4BA7
:104960004B4B4B4B4B4C4C4C4C4C4C4C4C4C4C4C8C
:104970004C4C4C4C4C4C4C4C4C4C4C4C4C4C4C4C77
:104980004D4D4D4D4D4D4D4D4D4D4D4D4D4D4D4D57
:104990004D4D4D4D4D4D4D4D4D4D4D4D4E4E4E4E43
:1049A0004E4E4E4E4E4E4E4E4E4E4E4E4E4E4E4E27
:1049B0004E4E4E4E4E4E4E4F4F4F4F4F4F4F4F4F0E
:1049C0004F4F4F4F4F4F4F4F4F4F4F4F4F4F4F4FF7
:1049D0004F4F5050505050505050505050505050D9
:1049E00050505050505050505050505050515151C4
:1049F00051515151515151515151515151515151A7
:104A0000515151515151515152525252525252528E
:104A10005252525252525252525252525252525276
:104A20005252535353535353535353535353535358
:104A30005353535353535353535353535354545443
:104A40005454545454545454545454545454545426
:104A5000545454545454545455555555555555550E
:104A600055555555555555555555555555555555F6
:104A700055555656565656565656565656565656D8
:104A800056565656565656565656565656575757C3
:104A900057575757575757575757575757575757A6
:104AA000575757575757575858585858585858588D
:104AB0005858585858585858585858585858585876
:104AC0005859595959595959595959595959595957
:104AD00059595959595959595959595A5A5A5A5A41
:104AE0005A5A5A5A5A5A5A5A5A5A5A5A5A5A5A5A26
:104AF0005A5A5A5A5A5A5B5B5B5B5B5B5B5B5B5B0C
:104B00005B5B5B5B5B5B5B5B5B5B5B5B5B5B5B5BF5
:104B10005C5C5C5C5C5C5C5C5C5C5C5C5C5C5C5CD5
:104B20005C5C5C5C5C5C5C5C5C5C5D5D5D5D5D5DBF
:104B30005D5D5D5D5D5D5D5D5D5D5D5D5D5D5D5DA5
:104B40005D5D5D5D5E5E5E5E5E5E5E5E5E5E5E5E89
:104B50005E5E5E5E5E5E5E5E5E5E5E5E5E5E5F5F73
:104B60005F5F5F5F5F5F5F5F5F5F5F5F5F5F5F5F55
:104B70005F5F5F5F5F5F5F5F60606060606060603D
:104B80006060606060606060606060606060606025
:104B90006061616161616161616161616161616106
:104BA00061616161616161616161616262626262F0
:104BB00062626262626262626262626262626262D5
:104BC00062626262626363636363636363636363BA
:104BD00063636363636363636363636363636364A4
:104BE0006464646464646464646464646464646485
:104BF000646464646464646465656565656565656D
:104C00006565656565656565656565656565656554
:104C10006565666666666666666666666666666636
:104C2000666666666666666666666667676767671F
:104C30006767676767676767676767676767676704
:104C400067676767676868686868686868686868E9
:104C500068686868686868686868686868686969D2
:104C600069696969696969696969696969696969B4
:104C700069696969696969696A6A6A6A6A6A6A6A9C
:104C80006A6A6A6A6A6A6A6A6A6A6A6A6A6A6A6A84
:104C90006A6B6B6B6B6B6B6B6B6B6B6B6B6B6B6B65
:104CA0006B6B6B6B6B6B6B6B6B6B6C6C6C6C6C6C4E
:104CB0006C6C6C6C6C6C6C6C6C6C6C6C6C6C6C6C34
:104CC0006C6C6C6C6D6D6D6D6D6D6D6D6D6D6D6D18
:104CD0006D6D6D6D6D6D6D6D6D6D6D6D6D6E6E6E01
:104CE0006E6E6E6E6E6E6E6E6E6E6E6E6E6E6E6EE4
:104CF0006E6E6E6E6E6E6F6F6F6F6F6F6F6F6F6FCA
:104D00006F6F6F6F6F6F6F6F6F6F6F6F6F6F6F6FB3
:104D10007070707070707070707070707070707093
:104D2000707070707070707070717171717171717C
:104D30007171717171717171717171717171717163
:104D40007171727272727272727272727272727245
:104D5000727272727272727272727273737373732E
:104D60007373737373737373737373737373737313
:104D700073737373747474747474747474747474F7
:104D800074747474747474747474747474747575E1
:104D900075757575757575757575757575757575C3
:104DA00075757575757575767676767676767676AA
:104DB0007676767676767676767676767676767693
:104DC0007777777777777777777777777777777773
:104DD000777777777777777777787878787878785C
:104DE0007878787878787878787878787878787843
:104DF0007878797979797979797979797979797925
:104E000079797979797979797979797A7A7A7A7A0D
:104E10007A7A7A7A7A7A7A7A7A7A7A7A7A7A7A7AF2
:104E20007A7A7A7A7B7B7B7B7B7B7B7B7B7B7B7BD6
:104E30007B7B7B7B7B7B7B7B7B7B7B7B7B7C7C7CBF
:104E40007C7C7C7C7C7C7C7C7C7C7C7C7C7C7C7CA2
:104E50007C7C7C7C7C7C7D7D7D7D7D7D7D7D7D7D88
:104E60007D7D7D7D7D7D7D7D7D7D7D7D7D7D7D7E71
:104E70007E7E7E7E7E7E7E7E7E7E7E7E7E7E7E7E52
:104E80007E7E7E7E7E7E7E7E0000000023002600E9
:104E900029000404040404040404020202020202BD
:104EA00003030303030301020408102040800102EE
:104EB000040810200102040810200000000800026D
:104EC000010000030407000000000000000011249E
:104ED0001FBECFEFD8E0DEBFCDBF11E0A0E0B1E054
:104EE000ECEFFBE502C005900D92A230B107D9F7B7
:104EF00021E0A2E0B1E001C01D92A333B207E1F7C7
:104F00000E941A290C94FC2D0C94000090E0FC01E6
:104F1000E654F14B2491FC01EA55F14B3491FC012C
:104F2000EE56F14BE491EE23B9F1222339F123300F
:104F300091F038F42130A9F0223001F584B58F7D4D
:104F400012C0273091F02830A1F02430B9F48091BC
:104F500080008F7D03C0809180008F7780938000D8
:104F60000DC084B58F7784BD09C08091B0008F7764
:104F700003C08091B0008F7D8093B000F0E0EE0F11
:104F8000FF1FE857F14BA591B491EC913E2381E0CE
:104F900090E021F480E0089580E090E008958E3064
:104FA00008F08E508770806480937C0080917A0036
:104FB000806480937A0080917A0086FDFCCF809196
:104FC00078002091790090E0922B08951F920F9223
:104FD0000FB60F9211242F933F938F939F93AF930C
:104FE000BF9380912F0190913001A0913101B09138
:104FF000320130912E0123E0230F2D3720F401964A
:10500000A11DB11D05C026E8230F0296A11DB11DEB
:1050100020932E0180932F0190933001A0933101B2
:10502000B093320180912A0190912B01A0912C0123
:10503000B0912D010196A11DB11D80932A0190937D
:105040002B01A0932C01B0932D01BF91AF919F91A3
:105050008F913F912F910F900FBE0F901F90189539
:105060001F920F920FB60F9211242F933F934F93DD
:105070005F936F937F938F939F93AF93BF93EF93C0
:10508000FF934091090150910A0160910B017091C9
:105090000C014F5F5F4F6F4F7F4F4093090150935B
:1050A0000A0160930B0170930C0180912101909192
:1050B0002201A0912301B0912401481759076A07E2
:1050C0007B0744F01092090110920A0110920B0123
:1050D00010920C01209129012130D1F1F8F02230F9
:1050E00009F47FC0233009F091C020910D01309167
:1050F0000E018091090190910A01289FF001299FDA
:10510000F00D389FF00D1124F0930301E09302019C
:10511000E859FF4FE491E093080178C080911F01A6
:1051200090912001092E000CAA0BBB0B40910901A4
:1051300050910A0160910B0170910C0148175907B9
:105140006A077B0714F08FEF49C0109208015EC018
:105150004091090150910A0160910B0170910C017D
:10516000841B950BA60BB70B481759076A077B07DB
:1051700094F4452B462B472B29F4109207011092EB
:10518000060115C020911001809106019091070140
:10519000820F911D08C0209110018091060190910D
:1051A0000701821B9109909307018093060180916A
:1051B0000601909107018F3F910541F03CF08FEF80
:1051C00090E0909307018093060106C097FF04C00A
:1051D0001092070110920601809106018093080148
:1051E00015C01092090110920A0110920B01109241
:1051F0000C0120910F018091040190910501820F13
:10520000911D9093050180930401E8CF80910801DE
:105210008BB9FF91EF91BF91AF919F918F917F914A
:105220006F915F914F913F912F910F900FBE0F9013
:105230001F901895789484B5826084BD84B5816090
:1052400084BD85B5826085BD85B5816085BD809151
:105250006E00816080936E001092810080918100C9
:1052600082608093810080918100816080938100C1
:10527000809180008160809380008091B100846083
:105280008093B1008091B00081608093B0008091E4
:105290007A00846080937A0080917A0082608093A3
:1052A0007A0080917A00816080937A0080917A0000
:1052B000806880937A001092C1008FEF8AB917B886
:1052C00084B9F89410928000109281008FE990E0E8
:1052D00090938900809388008091810088608093FA
:1052E00081008091810081608093810080916F00B6
:1052F000826080936F0080EA96E8A1E0B0E080933E
:10530000110190931201A0931301B093140115B8E9
:1053100081E090E00090290102C0880F991F0A9453
:10532000E2F785B983E10E94CF279093180180931B
:10533000170140E3489F9001499F300D11242F5FD2
:105340003F4F309316012093150140E050E06091EB
:1053500011017091120180911301909114010E942A
:10536000BB2D69017A0120932101309322014093E2
:1053700023015093240182E10E94CF27BC01990FA1
:10538000880B990B0E94992C60932501709326013C
:10539000809327019093280120E030EC4FE754E4FC
:1053A0000E94EF2B4B015C01C701B6010E94992CB2
:1053B0009B01AC01C501B4010E942A2D0E94612C01
:1053C0007093200160931F016FEF71E080E090E027
:1053D000A70196010E94BB2D209310016FEF70E092
:1053E00080E090E0A70196010E94BB2D20930F0161
:1053F00060E27EE480E090E0A70196010E94BB2D70
:1054000030930E0120930D01789410E380E2882EF2
:105410008EE4982EA12CB12CDCE022242394312C94
:10542000C1E002E083E10E94CF27E0901701F090F5
:1054300018018E199F091816190634F483E10E9489
:10544000CF278E199F0907C083E10E94CF279701BC
:10545000281B390BC90103970CF470C083E10E942B
:10546000CF279093180180931701189F9001199FDF
:10547000300D11242F5F3F4F3093160120931501FB
:1054800040E050E060911101709112018091130190
:10549000909114010E94BB2D69017A012093210192
:1054A00030932201409323015093240120E030ECFB
:1054B0004FE754E460912501709126018091270106
:1054C000909128010E94EF2B2B013C01C701B601EE
:1054D0000E94992C9B01AC01C301B2010E942A2DAC
:1054E0000E94612C7093200160931F016FEF71E0A7
:1054F00080E090E0A70196010E94BB2D222319F0C5
:105500002093100102C0C09310016FEF70E080E0A3
:1055100090E0A70196010E94BB2D222319F0209351
:105520000F0102C0C0930F01C501B401A70196018C
:105530000E94BB2D30930E0120930D01809100013C
:1055400080931E018EE00E948627892B19F4C09358
:10555000000119C08FE00E948627892B19F400935F
:10556000000111C080E10E948627892B21F434E0DC
:105570003093000108C081E10E948627892B19F42D
:1055800088E08093000190912901409100012091D1
:105590001E01242730E050E080E0843081F189173B
:1055A00061F1682F70E0F901082E02C0F595E795CA
:1055B0000A94E2F7E0FF0EC0FA01082E02C0F5954A
:1055C000E7950A94E2F7E0FD17C0FB01E75EFE4FA6
:1055D000D08313C0FB01E75EFE4FA081AA2369F0D0
:1055E000A150A083A11109C0FA01082E02C0F595AF
:1055F000E7950A94E2F7E0FD982F8F5FCECF809376
:105600001D019093290182E10E94CF27C0902501BE
:10561000D0902601E0902701F0902801BC01990F5D
:10562000880B990B0E94992CA70196010E94822B4E
:1056300020E030E0A9010E94252D181674F482E1C3
:105640000E94CF27BC01990F880B990B0E94992CBF
:10565000A70196010E94822B0EC082E10E94CF27F3
:10566000BC01990F880B990B0E94992CA7019601F8
:105670000E94822B905820E030E040E051E40E94EC
:10568000252D18167CF582E10E94CF27BC01990FC9
:10569000880B990B0E94992C609325017093260129
:1056A000809327019093280120E030EC4FE754E4E9
:1056B0000E94EF2B6B017C0160912101709122010E
:1056C00080912301909124010E94992C9B01AC01AF
:1056D000C701B6010E942A2D0E94612C70932001FF
:1056E00060931F01C1010090290102C0880F991F1A
:1056F0000A94E2F785B9E0E0F0E0309709F492CE41
:1057000009958ECE5058BB27AA270E949A2B0C943D
:10571000EB2C0E94DD2C38F00E94E42C20F039F4B0
:105720009F3F19F426F40C94DA2C0EF4E095E7FB75
:105730000C94D42CE92F0E94FC2C58F3BA17620762
:1057400073078407950720F079F4A6F50C941E2DB5
:105750000EF4E0950B2EBA2FA02D0B01B90190018C
:105760000C01CA01A0011124FF27591B99F0593FD0
:1057700050F4503E68F11A16F040A22F232F342F18
:105780004427585FF3CF469537952795A795F04066
:105790005395C9F77EF41F16BA0B620B730B840B7B
:1057A000BAF09150A1F0FF0FBB1F661F771F881F33
:1057B000C2F70EC0BA0F621F731F841F48F487958B
:1057C00077956795B795F7959E3F08F0B0CF93957D
:1057D000880F08F09927EE0F9795879508950E94F6
:1057E000032C0C94EB2C0E94E42C58F00E94DD2C2E
:1057F00040F029F45F3F29F00C94D42C51110C9403
:105800001F2D0C94DA2C0E94FC2C68F39923B1F321
:10581000552391F3951B550BBB27AA2762177307D6
:10582000840738F09F5F5F4F220F331F441FAA1F6A
:10583000A9F335D00E2E3AF0E0E832D09150504026
:10584000E695001CCAF72BD0FE2F29D0660F771FD4
:10585000881FBB1F261737074807AB07B0E809F0BA
:10586000BB0B802DBF01FF2793585F4F3AF09E3F3F
:10587000510578F00C94D42C0C941F2D5F3FE4F369
:10588000983ED4F3869577956795B795F7959F5F82
:10589000C9F7880F911D9695879597F90895E1E0CE
:1058A000660F771F881FBB1F621773078407BA072D
:1058B00020F0621B730B840BBA0BEE1F88F7E09588
:1058C00008950E94682C6894B1110C941F2D0895BE
:1058D0000E94042D88F09F5798F0B92F9927B7514F
:1058E000B0F0E1F0660F771F881F991F1AF0BA9584
:1058F000C9F714C0B13091F00E941E2DB1E0089597
:105900000C941E2D672F782F8827B85F39F0B93F88
:10591000CCF3869577956795B395D9F73EF4909536
:105920008095709561957F4F8F4F9F4F0895E894B4
:1059300009C097FB3EF490958095709561957F4FD7
:105940008F4F9F4F9923A9F0F92F96E9BB27939585
:10595000F695879577956795B795F111F8CFFAF495
:10596000BB0F11F460FF1BC06F5F7F4F8F4F9F4FC6
:1059700016C0882311F096E911C0772321F09EE824
:10598000872F762F05C0662371F096E8862F70E08A
:1059900060E02AF09A95660F771F881FDAF7880F64
:1059A0009695879597F9089597F99F6780E870E035
:1059B00060E008959FEF80EC089500240A94161685
:1059C000170618060906089500240A9412161306ED
:1059D000140605060895092E0394000C11F488237B
:1059E00052F0BB0F40F4BF2B11F460FF04C06F5F97
:1059F0007F4F8F4F9F4F089557FD9058440F551F6D
:105A000059F05F3F71F04795880F97FB991F61F040
:105A10009F3F79F087950895121613061406551FB7
:105A2000F2CF4695F1DF08C0161617061806991F23
:105A3000F1CF86957105610508940895E894BB2718
:105A400066277727CB0197F908950E94972D08F4D0
:105A50008FEF08950E943D2D0C94EB2C0E94DD2CBD
:105A600038F00E94E42C20F0952311F00C94D42CF3
:105A70000C94DA2C11240C941F2D0E94FC2C70F332
:105A8000959FC1F3950F50E0551F629FF001729FE3
:105A9000BB27F00DB11D639FAA27F00DB11DAA1FF2
:105AA000649F6627B00DA11D661F829F2227B00D3F
:105AB000A11D621F739FB00DA11D621F839FA00DCA
:105AC000611D221F749F3327A00D611D231F849F1A
:105AD000600D211D822F762F6A2F11249F57504071
:105AE0009AF0F1F088234AF0EE0FFF1FBB1F661FEC
:105AF000771F881F91505040A9F79E3F510580F0B5
:105B00000C94D42C0C941F2D5F3FE4F3983ED4F3F7
:105B1000869577956795B795F795E7959F5FC1F758
:105B2000FE2B880F911D9695879597F90895990FEB
:105B30000008550FAA0BE0E8FEEF16161706E80757
:105B4000F907C0F012161306E407F50798F0621B78
:105B5000730B840B950B39F40A2661F0232B242B4D
:105B6000252B21F408950A2609F4A140A6958FEF6C
:105B7000811D811D0895052E97FB1EF400940E943F
:105B8000D22D57FD07D00E94DA2D07FC03D04EF42A
:105B90000C94D22D50954095309521953F4F4F4F05
:105BA0005F4F089590958095709561957F4F8F4FC9
:105BB0009F4F0895A1E21A2EAA1BBB1BFD010DC029
:105BC000AA1FBB1FEE1FFF1FA217B307E407F507AD
:105BD00020F0A21BB30BE40BF50B661F771F881F89
:105BE000991F1A9469F760957095809590959B011F
:0C5BF000AC01BD01CF010895F894FFCF77
:025BFC0008009F
:00000001FF
